:020000040800F2
:1000000010070020CD000008AD1E0008D31C00081A
:1000100000000000000000000000000000000000E0
:10002000000000000000000000000000B11E0008F9
:100030000000000000000000AF1E0008B31E000812
:10004000DF00000800000000DF000008DF000008FB
:10005000DF000008DF000008DF000008DF00000804
:1000600000000000DF000008DF000008DF000008DB
:10007000DF000008DF000008DF00000800000000CB
:10008000511F0008DF000008DF000008DF00000843
:10009000DF000008DF000008DF000008DF000008C4
:1000A000DF000008DF000008DF000008BD280008AE
:1000B000CD280008DF0000080348854600F0A4FAB8
:1000C00000480047C134000810070020044880475A
:1000D00004480047FEE7FEE7FEE7FEE7FEE7FEE72F
:1000E000411F0008B900000830B50B46014600204A
:1000F0002022012409E00D46D5409D4205D31D462E
:100100009540491B2546954040191546521E002D25
:10011000F1DC30BD03460B439B0703D009E008C95F
:10012000121F08C0042AFAD203E00B780370401CA7
:10013000491C521EF9D27047D2B201E00270401C35
:10014000491EFBD270470022F6E710B513460A4657
:1001500004461946FFF7F0FF204610BD30B50546AE
:100160002A460B4610781C78521C5B1C002801D0D4
:10017000A042F7D0002C03D0002802D06D1CEFE77E
:10018000284630BD421C0178401C0029FBD1801A52
:10019000704770B5064602F00FFC046805460A2257
:1001A0000021304600F032F82C6070BDF0B51FB46D
:1001B0000646002082B005464024019100901BE0D5
:1001C000019922460F46304600F040FA049A059BFA
:1001D000801A994110D310461946224600F026FA9B
:1001E000361A8F410197224601200021009F00F01E
:1001F0001DFA38184D4100902046641E0028DFDCAF
:10020000019B00982946324607B0F0BDF7B5009C27
:100210000F4600262578641C002D05D000F03AFA20
:100220000068405DC007F5D12B2D02D02D2D18D0D0
:10023000641E39462046029A00F030FA002F04D09E
:100240003968A14201D10099396071050224002961
:100250000BDA4042002803DD02F0AEFB0460A00789
:10026000FEBD012080020643E3E70028F8DA02F031
:10027000A3FB04600048FEBDFFFFFF7FF0B507460B
:100280000846584087B0C00F049048000E465900F9
:1002900040084908BC1A884105D2384631461E46F6
:1002A00017460B4602465800400810434CD0300D0C
:1002B000039040055900400D490D0590401A0290E9
:1002C000402872DA18030121000B09050843019048
:1002D00004980092002805D00199524200208841DC
:1002E00000920190029840210A1A0199009800F0AA
:1002F0009DF905460C466B4607CB00F0B8F9C019CE
:100300007141039A0E0D0023D71756401A467A40C2
:10031000164344D0049A002A2DD0029A012A039A47
:1003200015DC1205C01A914101263605001C7141E9
:10033000D20F059ED2070093019202962A462346C9
:1003400000F00CFA07B0F0BD38463146FAE7160562
:10035000224A0F46B218C01AB74101210905001CF4
:100360004F4100187F41114618187941E20F1043A0
:100370006D19644113E0E2076D0815436408C20774
:100380001443039A01261205C01A91413605001C38
:100390007141CE07400830434908C01851412A46F0
:1003A000234600F0CEF9CDE7FFE704980122400094
:1003B000C117121A00238B4104983146C417381A0A
:1003C000A141EEE730B40124E407634030BC55E7B7
:1003D00030B40124E407614030BC4FE70000E0FF87
:1003E000F0B51FB488B00B990998002448400999CA
:1003F000C00F490049080991C0070B9900904900B6
:1004000049080B9109990898A64608431CD00B99F6
:100410000A98084318D0099801244000420D48006A
:10042000410D099824050003000B204309900B9807
:100430000003000B20430B9050181C494018002269
:1004400001901446104605E0002001460DB0F0BDB5
:10045000032801DA034600E003239C46C11A0AAED2
:100460000AE05F0008ADED5B4F00F75B7D430027BE
:10047000AA187C41491C5B1E6145F2DD410004ABBA
:100480005A522104120C0A43240C401C0828DFDBBA
:10049000019802900099704601910090059B049A82
:1004A0000799069800F05AF9D0E700000DFCFFFF0D
:1004B000F0B50C465C4085B0E40FE40703944C00B3
:1004C00000266408590094464908024602962243D1
:1004D00021D062460A431ED06200570D4A000E0327
:1004E0002303550D012402462C492405781B1B0BC0
:1004F000360B401823432643614600901C46501A91
:10050000B44103D30098401C009002E09218009878
:100510005B41002803DA0020014605B0F0BD002051
:10052000012109050746864611E064461D46141B55
:10053000B54106D36546521BB341744607430C438D
:10054000A646CD0740084908284392185B41054656
:100550000D43EAD11046184313D060461946504067
:100560007140084306D06046101AB34106D20122FA
:10057000002306E000220123DB0702E00122D24330
:100580005310009874460105381C6141029C039D7C
:100590000019694100F0D5F8BFE70000FD03000035
:1005A0004A0009030123090B1B0519430A4B10B527
:1005B000520D9A4202DA0020014610BD064B343338
:1005C0009A4203DC9A1A00F041F810BD034BD2188E
:1005D00000F02CF810BD0000FF030000CDFBFFFF72
:1005E00010B5002904DB0124E40740428C41214678
:1005F000002B04DB1C460123DB075242A341994236
:1006000000D1904210BD0000064C0125064E05E0C9
:10061000E36807CC2B430C3C98471034B442F7D323
:10062000FFF74EFDB43E0008D43E000810B5202A66
:1006300004DB0146203A9140002010BD9140202368
:100640009C1A0346E3401943904010BD10B5202A80
:1006500004DB0846203AD040002110BD0B46D340B1
:10066000D0402024A21A91400843194610BD10B56D
:10067000202A06DBCB170846203A1041C1170B434E
:1006800006E00B461341D0402024A21A91400843B3
:10069000194610BD00487047B03E0008F7B582B05B
:1006A000029C00272078641C15460197302802D050
:1006B000002D15D015E020780127641C782804D07F
:1006C000582802D0002D09D00BE0002D01D0102DAC
:1006D00007D1002710252078641C02E0082500E0DF
:1006E0000A250026009610E00099012769430818A2
:1006F000020C294680B2714300908E18380486425D
:1007000001D3012001902078641C294600F078F87C
:100710000028E9DA0398002805D0002F01D0641ED4
:1007200000E0029C04600198002806D002F044F921
:1007300002210160C81E05B0F0BD009930040843D5
:10074000F9E710B5002B08DA0024401C614192182B
:100750005B411A4301D14008400010BDF0B51FB401
:1007600082B005460C0003D0084602F0EBF802E028
:1007700002F0E8F820300246009021462846FFF7B4
:1007800055FF049B059A04460F461843114308433E
:1007900014D0184610431BD0009840210A1A18465E
:1007A0000599FFF753FF05460E46009A05990498F0
:1007B000FFF73CFF084305D0012004E020463946FE
:1007C00007B0F0BD0020C11705430E432C4337434B
:1007D00000990E986305401A7905E40A00220C433B
:1007E000FD0A0A3002D500200146E9E7010510198B
:1007F00069410C9C0D9D00196941FFF7A2FFDFE7DD
:100800003A2800D23038202302469A43412A01D3A5
:1008100010463738884201D30020C043704772B673
:10082000FEE70000F0B5002808D0014620314A79E3
:10083000022A05D00422C263002008710120F0BD05
:10084000026813680E24A3431360426C1468FF23EC
:1008500001339C43146002681468640864001460E7
:100860000C4A5568066C1C24264001242746B740D4
:100870003D435560826CC56C5560026D002A05D001
:1008800015689D431560826D406D42604C7100207B
:100890000871F0BD00000240F8B500240246203285
:1008A0005179022903D00421C16301242DE001689C
:1008B0000B680E25AB430B6001680B685B085B009F
:1008C0000B60416C0B68FF250135AB430B60104991
:1008D0004D68066C1C231E4001231F46B7403D4354
:1008E0004D60816CC56C4D60016D002906D00E68AD
:1008F0001D02AE430E60416D856D4D605371002148
:100900001171816B002900D088472046F8BD000096
:1009100000000240FCB5002301259AE022462C4647
:100920009C4022406FD04E68012E05D0022E03D08D
:10093000112E01D0122E16D186680327B4465E0010
:10094000B646B7406646BE43B446CF687646B74023
:100950006646374387604668A6430C79E406E40F91
:100960009C4034434460C6685F000324BC40A446F6
:10097000A6438C68BC403443C4604C68022C01D050
:10098000122C14D1DC08A40024180194266A5C07F8
:10099000B646E60E0F24B44000967646A643B64609
:1009A0000C69009EB44076462643019C266204688A
:1009B0006646B4430E79B607B60FBE4026430660BE
:1009C0004C68E40044D59E08254CB6003419A44672
:1009D000246E9E07F60E0F27B740BC4305273F073E
:1009E000B84201D1002710E01E4FB84201D10127C3
:1009F0000BE01D4FB84201D1022706E01B4FB84261
:100A000002D1032701E023E00527B74027436446CE
:100A10002766134E803634684F689443FF0300D531
:100A20001443346074684F689443BF0300D5144383
:100A300074600B4C26684F689643FF0200D516433E
:100A4000266066684F689643BF0200D5164366600D
:100A50005B1C0A681446DA4000D05FE7FCBD00006A
:100A6000001802400004005000080050000C005024
:100A7000426913460B401B0491430B43836170474B
:100A8000002A01D081617047816270470148806807
:100A90007047000028000020024881680278891809
:100AA000816070472800002010B5084800240168C4
:100AB000821511430160204600F00AF8002801D099
:100AC000012401E000F028F8204610BD002002407B
:100AD00070B50F4E002431780546002915D07D20D1
:100AE000C000FFF701FB01460A480068FFF7FCFA67
:100AF00000F012FC002808D1042D06D2002229465D
:100B0000401E00F02FF8756000E00124204670BD03
:100B1000280000203400002008B50B48016801229D
:100B20001143016000681040009007484038C26BD4
:100B300001040A43C263C06B0840009003204002D6
:100B400000F0E0FB08BD000040100240002805DB7B
:100B5000C106C90E012088400149086070470000A5
:100B600000E100E010B501F005FF10BD10B50F4C1D
:100B7000216803225202914301432160C11FFF39C2
:100B8000FA390ED10A480621006848430949FFF79F
:100B9000ABFA401C02E0002805D0401E61694905FF
:100BA000F9D4002010BD032010BD000000700040EB
:100BB0003400002040420F00F8B5044600680026CB
:100BC000524D800358D5514800274038C06BC000B3
:100BD00009D44E484038C26B01040A43C263C06B5B
:100BE0000840012700904A480168821511430160BE
:100BF000FFF74CFF009005E0FFF748FF0099401A0F
:100C0000022825D842480068C005F5D5E8690321C7
:100C1000090208400FD0A16981420CD0E869032184
:100C20000902EA698843012109040A43EA61EA6981
:100C30008A43EA61E861C0070FD0FFF727FF009001
:100C400008E0FFF723FF0099411A3248814201D999
:100C5000032609E0E8698007F3D5E8690321090262
:100C60008843A1690843E861002F05D02748403830
:100C7000C16B02049143C1632078C00705D0686945
:100C8000616880088000084368612078800705D586
:100C900068690C218843A168084368612078800650
:100CA00006D56869032109038843E1680843686140
:100CB0002088400411D56869616980008008084374
:100CC0006861012160698907884206D10F48403870
:100CD000C168012212041143C1602088000512D5A9
:100CE00068690321890388432169084368610121F8
:100CF00020698903884206D104484038C16801222E
:100D000012041143C1603046F8BD0000401002409B
:100D10000070004088130000F8B50F46060043D06D
:100D20004D4D28684007400FB84213D22868C008CC
:100D3000C00038432860FFF7A9FE044605E0FFF72E
:100D4000A5FE011B4548814261D828684007400F35
:100D5000B842F4D13068424C81070DD5400704D524
:100D6000A068072109030843A060A0680F210902B9
:100D70008843B1680843A0603078C00732D07068FB
:100D800001280AD002280BD000280FD03449403166
:100D900003280ED0C969890704E02168890301E0AE
:100DA00021688901002906DB0120F8BD2168490579
:100DB000F8E7096AEFE7A168C908C9000143A16023
:100DC000FFF764FE009006E0FFF760FE0099411A0D
:100DD000224881421BD8A068382108407168C900A8
:100DE0008842F1D128684007400FB84217D91A4805
:100DF0000168C908C90039430160FFF747FE05468D
:100E000007E0FFF743FE411B1448814201D903204C
:100E1000F8BD114800684007400FB842F1D1307862
:100E2000400706D5A068072109038843F1680843F5
:100E3000A06000F031F8A1683C2289091140094AFC
:100E4000515CC906C90EC8400749086007480068D8
:100E5000FFF73EFEF8BD00000020024088130000AE
:100E600000100240CC3D0008340000202C0000207F
:100E70000648074900688968064A4904490F8900FD
:100E8000515CC906C90EC8407047000034000020FC
:100E9000001002400C3E000810B5204CA068204A0B
:100EA0008006400F16D0A0688006410F501001291F
:100EB0000FD0A1688906490F022912D0A0688006C8
:100EC000400F042823D0A0688006400F032821D0BB
:100ED000002010BD206801218004400F8140104691
:100EE00012E0E1688B07E1689B0F4906490F491C36
:100EF000032B00D01046FFF7F7F8E1684904490ECC
:100F00004843E168490F491CFFF7EEF810BD012086
:100F1000C00310BD7D20000210BD00000010024083
:100F20000024F400F8B504007ED020783827C007EC
:100F3000EB4D002846D0A868E96838408907890F3A
:100F4000102802D008280BD001E0032908D0012086
:100F50006268000482420AD129680143296015E0D1
:100F6000286880032ED560680028DDD02AE005239C
:100F700001211B0489049A422A6802D10A432A608B
:100F8000EAE782432A60286888432860606800286E
:100F90000CD0FFF77BFD064604E0FFF777FD801BD2
:100FA000642873D828688003F7D50BE0FFF76EFD3F
:100FB000064604E0FFF76AFD801B6428F1D8286824
:100FC0008003F7D42078800769D5A868E96838409D
:100FD0008A070721920FC902102802D0002813D0D7
:100FE00001E0022A10D0E068002846D02868884333
:100FF0002169084328602868FF21013108432860DF
:10100000FFF744FD06462CE02A68520502D5E26847
:10101000002A89D06A687F231B029A4363691B02F6
:101020001A436A60002800E08DE00ED128688843EA
:10103000216908432860286801218004400F81400D
:10104000A848FFF751F8A8490860A8480068FFF7CA
:101050003FFD002877D122E0FFF718FD801B022812
:101060009FD828684005F7D568687F210902884322
:10107000616909020843686011E02968FF200130B6
:1010800081432960FFF702FD064605E098E0FFF77F
:10109000FDFC801B022884D828684005F7D42078FE
:1010A000934E00072ED5A8688006400F03280AD06B
:1010B000A0690028306A16D0012108433062FFF78A
:1010C000E5FC07460BE0306A80071BD5A0690028C5
:1010D0009FD017E0FFF7DAFCC01B022870D8306AF7
:1010E0008007F7D50EE0400840003062FFF7CEFCE5
:1010F000074604E0FFF7CAFCC01B022860D8306A2C
:101100008007F7D4207840076CD5A86800278006B0
:10111000400F042818D0E86BC00008D4E96B012008
:1011200000070143E963E96B014001270091714821
:101130000168C90519D40168821511430160FFF7E0
:10114000A5FC00900DE083E0F06980074AD5A06817
:1011500000287DD046E0FFF799FC0099401A02284C
:101160002ED864480068C005F5D5A168012910D0C3
:1011700004200529F16911D049084900F161F1699C
:101180008143F161A068002816D0FFF77FFC009032
:101190000EE0F06901210843F061F3E70143F161DA
:1011A000F7E7FFF773FC0099411A534881426DD865
:1011B000F0698007F5D50EE0FFF768FC009007E0C6
:1011C00064E0FFF763FC0099411A4B4881425DD807
:1011D000F0698007F5D4002F04D0E96B01200007E7
:1011E0008143E963E069002877D0A9688906490F3F
:1011F000022951D001263606022828680DD0B043B6
:101200002860E86880088000E860E8683B4908409A
:10121000E860FFF73BFC04463AE0B0432860FFF784
:1012200035FC074604E0FFF731FCC01B02282DD82F
:1012300028688001F7D4616A206AA26A0843E16ADB
:10124000120211430843216B0843E9682C4A00E06D
:1012500041E011400843E860286830432860E868AE
:10126000012109070843E860FFF710FC044604E089
:10127000FFF70CFC001B022808D828688001F7D56E
:101280002BE0FFF703FC001B022801D90320F8BD67
:1012900028688001F5D420E00128F8D0E868226AA7
:1012A0008107890F914216D17021626A01409142F3
:1012B00011D17F21A26A09020140120291420AD192
:1012C0001F214904E26A0140914204D1400F216B81
:1012D0004007884201D00120F8BD0020F8BD000081
:1012E000001002400024F400340000202C000020F4
:1012F000401002400070004088130000FFFFFEEF26
:101300008C80C11F03490A6803235B029A4302438E
:101310000A60704700000140094910B5401E88422C
:1013200001D9012010BD074C60610321081F01F0A5
:1013300021FB0020A06107202061002010BD0000DB
:10134000FFFFFF0000E000E07047704770470000BB
:10135000F0B5034620331A7F012A27D001221A77DD
:1013600002225A7704686268A568114FBC4205D111
:1013700016460F22120596434A6832437026B2433E
:101380000E68164366600068B84205D0094A90426C
:1013900002D0094A904204D18022896895432943AA
:1013A00081600120587700201877F0BD0220F0BD41
:1013B000002C0140000400400040014070B50400D2
:1013C00005D025462035687F002802D006E00120A0
:1013D00070BD00202877204600F016F802206877BC
:1013E000211D206800F0BCFD012240342272AA7742
:1013F000EA7722706270A270E27022716271A2714B
:10140000E2716A77002070BD08B50068094988421A
:101410000FD10948C26B02210A43C263C06B00228C
:101420000840009011461020FFF79CFB1020FFF7AA
:101430008DFB08BD00040040001002400146203131
:101440004A7F012A01D00120704702224A770168B1
:10145000CB6801221343CB6000680B49884205D05A
:101460000A49884202D00A49884207D18168094B5B
:101470001940062905D0DB1F994202D001681143AB
:101480000160002070470000002C01400004004073
:10149000004001400700010070B5054604462035B4
:1014A000287F012817D001262E770220687722682E
:1014B00090682E4B1840FF231B02984390600A68E7
:1014C000502A32D00EDC202A4CD006DC002A49D02B
:1014D000102A3BD146E0022070BD302A42D0402A7B
:1014E00034D137E0602A28D0702A12D001200003BE
:1014F000121A2BD0824229D1CB684A6889682068A9
:1015000000F072FD2068816801229203114381601E
:101510001CE0CB684A688968206800F065FD216896
:10152000886877221043886010E0CA68496820689C
:1015300000F070FD5021206806E0CA684968206804
:1015400000F079FD6021206800F05AFD6E770020E0
:10155000287770BDCA684968206800F05BFD4021AB
:101560002068F1E711462068EEE7000088FFCEFF13
:101570007047000070B50446006801690025C94342
:101580008907002915DBC168C943890711D4E91E01
:10159000016101202077206880698007204602D001
:1015A000FFF7E6FF04E000F0A7F8204600F0A5F8FA
:1015B000257720680169C943490717D4C168C94321
:1015C000490713D40421C943016102202077206810
:1015D00080698005800F204602D0FFF7C9FF04E034
:1015E00000F08AF8204600F088F825772068016925
:1015F000C943090716D4C168C943090712D4082191
:10160000C9430161042020772068C0698007204613
:1016100002D0FFF7ADFF04E000F06EF8204600F0C6
:101620006CF8257720680169C943C90617D4C168D9
:10163000C943C90613D41021C9430161082020778A
:101640002068C0698005800F204602D0FFF790FF18
:1016500004E000F051F8204600F04FF825772068AC
:101660000169C943C90708D1C168C943C90704D181
:10167000891E0161204600F041F820680169C943D4
:10168000090609D4C168C943090605D48021C943A4
:1016900001612046FFF759FE20680169C943C90569
:1016A00008D4C168C943090604D41249016120461F
:1016B000FFF74AFE20680169C943490609D4C16899
:1016C000C943490605D44021C9430161204600F0C1
:1016D0002BF820680169C943890609D4C168C94348
:1016E000890605D42021C94301612046FFF72EFE5B
:1016F00070BD0000FFFEFFFF7047704710B5084C3B
:101700002088401C208001F06DFE2088642806D3CC
:10171000012149030348FFF7ABF90020208010BDE9
:101720000000002000080050704710B501468031CD
:101730000A78012A15D001220A7024224A60026820
:10174000136814686408640014600122520793430C
:101750000022426600680360202048600A7010463C
:1017600010BD022010BD7047704770B50446054695
:101770008034207801281AD0012020702420606055
:101780002868066802685208520002602868826869
:1017900007235B069A430A438260284600F05EFCFA
:1017A00028680660202060600020207070BD022044
:1017B00070BD70B50446054680342078012819D0E4
:1017C00001202070242060602868066802685208A2
:1017D0005200026028688268D200D2080A43826000
:1017E000284600F03BFC286806602020606000204E
:1017F000207070BD022070BD7047704770470000B8
:10180000F8B503680446D96918689A68914D0E4680
:101810002E4025468035002E6CD08F4E8F4F1640BF
:10182000074037437FD0CF0706D0C70504D501272F
:101830001F62EB683B43EB608B0708D5D30706D0EC
:10184000276802233B62EB6804273B43EB604B07AE
:1018500008D5D30706D0276804233B62EB6802272C
:101860003B43EB600B0709D520230340334305D0EE
:10187000266808233362EE681E43EE600B0509D527
:10188000430107D501232668DB023362EB6820267B
:101890003343EB60EB68002B3AD089060AD5202150
:1018A0000840C9050A40104304D0216F002901D027
:1018B00020468847E86821688968490602D42821BB
:1018C00008422AD0204600F09BFC20688168490627
:1018D0001FD5826840218A438260E06F002818D0BB
:1018E0005F498163E06FFEF7D7FF002810D0E06FFB
:1018F000816B0CE08E0616D5012720263F07064097
:1019000017403E430FD0216F7FE00CE02046884710
:10191000F8BD2046FFF772FFF8BD2046FFF76EFFC7
:101920000020E860F8BDE66E012E59D1CE0657D5ED
:10193000C60655D510221A622068816826464906D7
:10194000403600292BDAE36F196849680904090C4D
:10195000E8D0B78B8F42E5D9F18319680968890609
:1019600018D401681301994301602068816849080F
:10197000490081602068816840239943816020206C
:10198000A8600020E0662068016891430160E06F74
:10199000FEF748FFB08BF18B401A81B21CE0B18B8F
:1019A000F38BC91AF38B89B2002BBBD00029B9D0B5
:1019B0000368FF262136B343036020688368264E00
:1019C000F643334083602020A8600020E066206753
:1019D00020680368934303602046FFF7C4FEF8BD08
:1019E000CE0208D5560206D5012000051862204611
:1019F000FFF703FFF8BD0E060BD501278026FF0574
:101A000006403A40164304D0616F002900D07DE7BC
:101A1000F8BD4A060DD542060BD51A68204640216E
:101A20008A431A60202169600021616700F050F943
:101A3000F8BD0A0205D5420003D52046FFF7DCFEBB
:101A4000F8BDC901FCD50028FADA2046FFF78CFE64
:101A5000F8BD00000F080000010000102001000484
:101A6000ED21000870B5040005D025468035686872
:101A7000002802D006E0012070BD0020287020461A
:101A800000F026F8242068602068016849084900B1
:101A90000160204600F088FD0128EDD0A06A0028F2
:101AA00002D0204600F00AFB206841680922D202D9
:101AB00091434160206881682A22914381602068B7
:101AC0000168012211430160204600F05DFB70BDFA
:101AD000F0B587B0044614216846FEF734FB24684D
:101AE000264E052000222649012302250007B44284
:101AF0001FD1234C403427689E0337432760246856
:101B0000344005944C6B1C434C63496B0292194062
:101B100005910321490200910195049303926946BE
:101B2000FEF7F8FE002211461B20FFF71BF81B20D2
:101B300020E0144EB4421FD1CE6B0124640426432E
:101B4000CE63CE6B264005964C6B1C434C63496BB1
:101B50000292C907C90F05910C21009101950493C8
:101B600003926946FEF7D6FE002211461C20FEF7BE
:101B7000F9FF1C20FEF7EAFF07B0F0BD0038014076
:101B8000001002400044004030B5034680339C689A
:101B9000202C19D100290BD0002A09D001258468F6
:101BA0002D03AC4206D10469002C03D1CC0701D02F
:101BB000012030BD1C78012C06D001241C700023AC
:101BC000C36600F0BDFD30BD022030BD10B5006819
:101BD0000649884208D10648007801F031FC01220C
:101BE00003490448FFF7D0FF10BD00000044004047
:101BF000040000201C010020FFB506460446803684
:101C0000706883B00D46202860D1002D0CD0059857
:101C1000002809D00120A1680003814207D1206972
:101C2000002804D1E80702D0012007B0F0BD3078C9
:101C300001284BD0012030700020F060212070601E
:101C4000FEF724FF0190274640370598B882059893
:101C5000F8820120A1680003814202D12069002896
:101C600004D0029500250020307015E0002002907D
:101C7000F9E700228021204600F0D2FD002818D18B
:101C80000298002817D02168007888620298401CCA
:101C90000290F88A401EF882F88A019B0028069874
:101CA0000090E6D100224021204600F0B9FD002836
:101CB00008D00320B9E728882168C005C00D8862D4
:101CC000AD1CE6E7202070600020AEE70220ACE704
:101CD0007047FEE7F0B587B014216846FEF733FA87
:101CE0001E48426B04210A434263426B0A4005923C
:101CF000426B20210A434263426B0A400592416BCA
:101D0000012529434163416B29400591426B022122
:101D10000A434263406B124C0840124F0590002268
:101D200021463846FEF7ACFEEE02002231460E4850
:101D3000FEF7A6FE009400240195029469463846F9
:101D40000394FEF7E7FD0294694607480096019563
:101D50000394FEF7DFFD07B0F0BD00000010024065
:101D60000C280000000800500004005010B588B096
:101D70000024009401941748029403940494059459
:101D800013490694016014498460416004613F2155
:101D90008461C160FFF712FB002801D0FEF73FFD10
:101DA00001200003009069460A48FFF775FB0028F0
:101DB00001D0FEF734FD049404A906480694FFF709
:101DC000C7FA002801D0FEF72AFD08B010BD0000B8
:101DD00000040040400000200F27000010B5184804
:101DE00016490160E1214902416000218160C16022
:101DF00001618161C16101620C22416242618162C3
:101E0000FFF730FE002801D0FEF709FD00210C4845
:101E1000FFF7CFFC002801D0FEF701FD00210848A4
:101E2000FFF7A3FC002801D0FEF7F9FC0448FFF7F8
:101E30007CFC002801D0FEF7F2FC10BD0038014008
:101E40008C00002010B5184816490160E1214902B4
:101E5000416000218160C16001618161C1610162F5
:101E60000C22416242618162FFF7FCFD002801D033
:101E7000FEF7D5FC00210C48FFF79BFC002801D0A1
:101E8000FEF7CDFC00210848FFF76FFC002801D0C9
:101E9000FEF7C5FC0448FFF748FC002801D0FEF718
:101EA000BEFC10BD004400401C010020FEE770474E
:101EB000704710B5FEF7F0FD10BD70B598B0342135
:101EC0006846FEF740F900241494159416941C21DA
:101ED0000DA81794FEF737F901204002FEF746FEE1
:101EE000012000900004019010200A904003022677
:101EF0000B900796000303250C90089509946846FB
:101F0000FFF710F8002801D072B6FEE70720149002
:101F1000169402211596179414A8FEF7FDFE0028CA
:101F200001D072B6FEE70E940DA80D950F94FEF742
:101F300043FE002801D072B6FEE718B070BD000065
:101F400001200249C00688607047000000ED00E0F3
:101F500010B50248FFF70EFB10BD00004000002046
:101F6000F0B502681A4B1B4C984201D0A04203D135
:101F70007025AA434D682A43174D184E184F9842B2
:101F80000AD0A04208D0174CA04205D0A84203D0E6
:101F9000B04201D0B84205D1144603221202944344
:101FA000CA6822438024A2434C69224302608A68A3
:101FB000C2620A688262984205D0A84203D0B04249
:101FC00001D0B84201D10969016301214161F0BD2D
:101FD000002C01400004004000400140004401404A
:101FE000004801400020004030B58468FF252D02E4
:101FF0001B021343AC430B432343836030BD0000FB
:102000008268034B1A400A4307210A4382607047E3
:102010008FFFCFFF30B5036A046A6408640004626E
:102020008469F025AC43120122430A24A3430B43E5
:102030008261036230BD30B5036A1024A34303629A
:102040008469036A0F252D031203AC432243A024A5
:10205000A343090119438261016230BDF0B513A1A8
:1020600006C985B00192009112A206CA039202919C
:102070000446416E4034002915D0006881688068AC
:1020800009014D0F400F02AE315C6F46385CC00055
:10209000FEF72AF86085785D715DC000FEF724F8D0
:1020A000208505B0F0BD01206085F9E7010101033D
:1020B00007010000080402040801010110B5018DA8
:1020C000C90707D001684A6801235B049A43C36AC1
:1020D0001A434A60018D890707D501684A680123C0
:1020E0001B049A43036B1A434A60018D490707D5C5
:1020F00001684A6801239B049A43436B1A434A6070
:10210000018D090707D501684A680123DB039A435B
:10211000836B1A434A60018DC90607D5026891682E
:1021200001231B039943C36B19439160018D8906F9
:1021300007D501688A6801235B039A43036C1A433D
:102140008A60018D490612D503685A680121090584
:10215000446C8A4322435A60426C8A4207D1026827
:10216000516803235B059943836C19435160018DCA
:10217000090607D501684A680123DB04C06C9A434D
:1021800002434A6010BD0000FEB5054600268035BA
:102190000446EE60FEF77AFC019020680068124F5A
:1021A000000709D501210097002249052046019B1F
:1021B00000F036FB00280DD12068006840070BD5E1
:1021C00001210097002289052046019B00F028FB91
:1021D000002801D00320FEBD20206860A860E666CC
:1021E0002E700020FEBD0000FFFFFF0110B5806AC9
:1021F000002201464031CA83CA82FFF7FFFA10BDB0
:1022000001680A68FF2321339A430A6001688A68DB
:10221000084B1A408A60C16E012904D101680A681E
:1022200010239A430A60202288210A500021C166A7
:1022300001677047FEFFFFEF70B50446403021464E
:102240008031038C8D682268222D04D0906908218A
:102250000843906170BD526AA56D1A402A80A26D34
:10226000921CA265C28B521EC283C28B002AF1D17E
:1022700022681368FF252135AB43136022689368F9
:102280005B085B00936020228A6000252567E16E71
:10229000012904D02046FFF799FCE56670BD21684E
:1022A0000A6810239A430A60818B2046FFF75BFA85
:1022B000F3E70000F0B505460446403589B0288CA8
:1022C00002902068C66901680691816804912146E0
:1022D000803100918968222905D081690822114343
:1022E000816109B0F0BD2F8D5CE02068406A029AE0
:1022F000A16D10400880A06D801CA065E88B401E79
:10230000E8832068C669710731D0F10709D00699C2
:10231000C90506D5012101620098C06808430099EB
:10232000C860B0070BD50498C00708D02168022008
:1023300008620098C068042108430099C8607007CB
:102340000BD50498C00708D02168042008620098C3
:10235000C068022108430099C8600098C06800283E
:1023600005D02046FFF74AFA00990020C860E88BA4
:10237000002817D120680168FF22013291430160D3
:1023800020688168184A1140816000992020886087
:1023900000202067E06E01281CD02046FFF716FCC5
:1023A0000020E066002F01D0B0069ED4E88B002804
:1023B00097D0298D814294D9206881680122120723
:1023C00091438160094820672068016820221143F9
:1023D000016086E720680168102291430160A98BA3
:1023E0002046FFF7C0F9DBE7FEFFFFEF39220008C8
:1023F00070B50446403022468032038C95682168CF
:10240000222D04D0886908221043886170BD496A72
:102410001940A36D1970A16D491CA165C18B491E9E
:10242000C183C18B0029F1D121680B68FF252135BB
:10243000AB430B6021688B685B085B008B602021DD
:10244000916000252567E16E012904D02046FFF741
:10245000BDFBE56670BD21680A6810239A430A60D7
:10246000818B2046FFF77FF9F3E70000F0B50546C2
:102470000446403589B0288C01902068C6690168FF
:102480000691816804912146803102918968222950
:1024900005D0816908221143816109B0F0BD2F8DFB
:1024A0005CE02068406A01990840A16D0870A06D49
:1024B000401CA065E88B401EE8832068C669710750
:1024C00031D0F10709D00699C90506D5012101626D
:1024D0000298C06808430299C860B0070BD50498F9
:1024E000C00708D02168022008620298C068042151
:1024F00008430299C86070070BD50498C00708D03C
:102500002168042008620298C068022108430299E9
:10251000C8600298C068002805D02046FFF76EF911
:1025200002980021C160E88B002817D1206801685B
:10253000FF2201329143016020688168184A1140EE
:10254000816002992020886000202067E06E0128C9
:102550001CD02046FFF73AFB0020E066002F01D098
:10256000B0069ED4E88B002897D0298D814294D95B
:102570002068816801221207914381600948206721
:102580002068016820221143016086E72068016805
:10259000102291430160A98B2046FFF7E4F8DBE7A6
:1025A000FEFFFFEFF1230008F8B5044680682169BB
:1025B000E26908436169002511430843616E0143E4
:1025C00020680268544B1A400A4302602168486838
:1025D000032212039043E26810434860A169206A15
:1025E000084321688A684D4B1A4002438A6020687C
:1025F000C16A626A090909011143C162484A206837
:10260000484990420AD148698007800F20D00128AC
:1026100014D0022810D003281CD111E0424A904265
:1026200010D148690C21084012D0042806D008288F
:1026300002D00C280ED103E002210CE004210AE0B4
:10264000082108E03949884202D03949884201D13D
:10265000002100E010210120E369C003354A364E15
:10266000364F834228D1002906D0022907D00429F9
:1026700007D0082941D108E0FEF7FAFB03E0104635
:1026800003E0FEF709FC00283BD0616A4900715A5B
:10269000FDF72AFD616840004A088018FDF724FD17
:1026A00080B201461039B94227D82449491C01405B
:1026B0000007400F084322E0002906D0022907D076
:1026C000042907D0082918D108E0FEF7D1FB03E060
:1026D000104603E0FEF7E0FB002812D0616A4900D3
:1026E000715AFDF701FD61684A088018FDF7FCFC8E
:1026F00080B201461039B94201D9012501E02168B3
:10270000C8602046012140304185018500202067B6
:1027100060672846F8BD0000F369FFCFFFF4FF11A2
:102720000038014040100240004400400048004092
:10273000004C00400024F400B43D0008EFFF00000E
:10274000F0B58165014640318A83CA83002303675F
:10275000012584682D03FF26AC4204D10469002CB6
:1027600013D12A4C0AE07F27002C09D00126360716
:10277000B4420CD10469002C05D03F240C8407E03E
:102780000469002C01D00F8402E00E8400E00B8469
:1027900004468034E3602226A6600768BE68BC4613
:1027A00001273E436746BE600127466E7F07BE4253
:1027B00019D1098D914216D88168A94202D10169C7
:1027C00000290ED012490167237001680A68FF23AF
:1027D00001331A430A60006881681A051143816059
:1027E00010E00C49EFE78168A94202D10169002994
:1027F0000AD009490167237000680168FF2221326D
:10280000114301600020F0BD0449F3E7FF0100001F
:102810006D240008B5220008F123000839220008C1
:10282000FFB581B005460F46044680350A9E38E064
:10283000701C36D0FEF72AF90499401AB04221D80C
:10284000002E1FD02068016849072AD5C069C043FF
:10285000000526D401202168C002086220680168B2
:10286000FF22A13291430160206881684908490034
:10287000816020206860A860E86000202870032044
:1028800005B0F0BD20680168FF22A13291430160CC
:102890002068816849084900816020206860A8603C
:1028A000EBE72068C1693846884305D000210398CA
:1028B0008142BDD00020E3E70121F8E710B50248CE
:1028C000FEF79EFF10BD00008C00002010B50248EE
:1028D000FEF796FF10BD00001C01002010B500227D
:1028E000054B06E0DC696406FCD5845C9C62521CE6
:1028F000D2B28A42F6D310BD004400400FB410B5E6
:1029000003A9044B044A029800F024F910BC08BC47
:1029100004B01847A5340008380000200FB410B5E3
:1029200004A9074B02AA039800F014F9044602A96F
:10293000002000F0ABFC204610BC08BC04B01847D7
:102940008D3200082021020C01D010211046020A0D
:1029500001D010460839020901D01046091F82082B
:1029600001D01046891E420801D0881E7047081AFF
:10297000704700008307FF22DB0E9A408907090E8B
:102980009940002808DB830809489B001B18186839
:1029900090430843186070470007000F0838830809
:1029A00004489B001B18D86990430843D8617047BE
:1029B00000E400E000ED00E0004870473C0000202B
:1029C00002E008C8121F08C1002AFAD170477047F8
:1029D000002001E001C1121F002AFBD17047000056
:1029E000F0B51FB486B00998089A030D0021024380
:1029F00014D05148514A1818504305141198012811
:102A000010981AD0281A401C00264D4F4D490096A8
:102A100001910490002812DA444211E01198012437
:102A200049A3012801D11098C1430698119A8460E6
:102A30000360C26041600BB0F0BD4042E4E7044671
:102A4000210500203F4A001C51410391029012E0F1
:102A5000E00707D032463B4601990098FDF7C0FCDD
:102A60000191009032463B4610461946FDF7B8FCEE
:102A700006460F466410002CEAD10498039B0028F8
:102A8000029A0999089806DAFDF7AAFC019B009AB8
:102A9000FDF7A6FC05E0FDF70BFD019B009AFDF795
:102AA00007FD04460E460022284BFDF799FD03D88A
:102AB0000020C043014607E00022254B2046314656
:102AC000FDF7DCFBFDF76CFD102409E0002C0ADBB0
:102AD0000A220023FDF76AFB079B30321A55641E59
:102AE00002460A43F2D11122641C079B121B1C19D7
:102AF000119B012B03D0012308430ED10AE00843A8
:102B000004D0112010900020119077E71098151A2A
:102B10006D1E0BE01098824202DD00236D1C03E065
:102B2000824201DA00236D1E002BEED00698119927
:102B30008260C16030C07EE701FCFFFF104D0000E5
:102B4000000014400000F03F300000000000F0439F
:102B50000000E03FFFB597B00646002518E22528A3
:102B600077D100242746FD49049400E00443761CF5
:102B700032780120203A90400842F7D130782A2854
:102B80000ED00222307801463039092916D804992E
:102B90000A235943303940181443761C0490F1E756
:102BA000189802C804911890002904DA0120400303
:102BB00004434842049002200443761C30782E28B7
:102BC00014D1042004437078761C2A2809D118985F
:102BD000761C80C8189009E00A214F43303FC7197E
:102BE000761C3078014630390929F5D930786C28BF
:102BF00010D006DC4C281AD068280ED06A2817D1CD
:102C000004E0742813D07A2812D110E00120400586
:102C100004430CE00121090501E0032109050C43EF
:102C20007178814203D1012000052418761C761C9E
:102C30003078119066280BD013DC58287DD009DC41
:102C400000287BD04528F6D04628F4D047281AD152
:102C5000A5E118E0632835D0642870D0652812D12A
:102C60009DE170286CD008DC6728F1D069287BD002
:102C70006E280DD06F2806D1BAE073282ED07528A3
:102C800071D0782859D01A9A199990476D1C7EE115
:102C90006002400F022809D003280DD0042818989C
:102CA00001680DD00D60001D189070E11898EA17AA
:102CB00001680D604A60F6E7189801680D80F2E738
:102CC0000D70F0E718986A4601781172001D18908F
:102CD0000020507202A80090012005E0189802C858
:102CE000189000200091C04361070DD5002101E03C
:102CF0000199491C0191B94212DA8142F8DB009A2C
:102D0000515C0029F4D10BE0002101E00199491C3C
:102D100001918142FADB019A0099895C0029F5D181
:102D2000019904981A9B471A21463846199A00F0CF
:102D300097FA0199401945180BE04FE02CE113E098
:102D40004EE0009800990078491C00911A9A199950
:102D500090470198401E0190401CF2D12146384610
:102D60001A9B199A10E137E00A2000210090019186
:102D70006002410F022907D0189A01CA1892C2179F
:102D80009446032908D00AE01898C01DC108C9005C
:102D900005C91891944607E000B2C2179446042969
:102DA00002D140B2C1178C4600226146944506DA32
:102DB0000A460021404291418C462D2102E0210526
:102DC00004D52B216A461173012103E0E10701D0EC
:102DD0002021F7E7029155E00A200AE0102008E0E0
:102DE000102000900021042004430191082703E0F3
:102DF00008200021019100906002410F022907D0B4
:102E0000189A01CA189200229446032908D008E0B3
:102E10001898C01DC108C90005C91891944603E05F
:102E200080B2042900D1C0B200210291210729D526
:102E30001199702906D0009A1021019B4A401A432B
:102E400005D00EE040216A461173012108E0614679
:102E5000014306D030216A46117311995173022142
:102E60000291009A0821019B4A401A430AD1614607
:102E7000014301D1610705D530216A461173012153
:102E80007F1E02911199582904D035A10E910DA9E8
:102E90000D910DE037A1F9E76146019B009AFDF71E
:102EA00085F90E9B8C469B5C0D9A521E0D921370F9
:102EB00061460143F0D10D9805A9081A2030019010
:102EC000600703D501200004844300E00127019836
:102ED000874201DD381A00E0002001990090411876
:102EE000029809180498401A0490E00306D4214679
:102EF0001A9B199A049800F0B3F94519002706E0C7
:102F000003A81A9AC05D199990476D1C7F1C0298FE
:102F10008742F5DBE0030CD521461A9B199A0498E9
:102F200000F09EF9451904E01A9A3020199990474B
:102F30006D1C0099481E00900029F5DC08E00D98F2
:102F40000D990078491C0D911A9A199990476D1C9A
:102F50000199481E01900029F1DC63E10928010074
:102F600030313233343536373839616263646566FF
:102F700000000000303132333435363738394142C1
:102F8000434445460000000000F05AF94519761CFC
:102F90003078002800D0E2E528461BB0F0BD60077D
:102FA00000D406271898C01DC108C90048680A68DF
:102FB0000831C30FDB071891190001D09CA108E06C
:102FC000210501D59BA104E0E10701D09AA100E011
:102FD0009AA1430011985B08109165280CD006DC7B
:102FE000452809D046281DD0472841D141E0662810
:102FF00018D067283CD13CE00021112F01DB1120C3
:1030000000E0781C0191009008A911A8FFF7E8FCE6
:10301000139905910021119A15927F1C129801971E
:10302000009150E00120C00703900120019008A901
:10303000009711A8FFF7D4FC139A14990592002267
:10304000119B009212981593059A0192002901D0C4
:10305000104602E0791C40180190381A01D50198F9
:1030600004E04042401E0090781C0190C01B02907A
:1030700043E0012F00DA01270021112F01DD11208B
:1030800000E038460191009008A911A8FFF7A8FCBC
:1030900013990591119A00211298159200910197A8
:1030A00021070CD40599B94201DB019900E0019197
:1030B000012904DD159A491E515C302906D0B84219
:1030C00001DA011D05DA0121029115E00199491E7D
:1030D000EDE7002805DC0099411800910199091AD3
:1030E00003E0019A411C914200DD01910099401AD0
:1030F000401C02900120C0070390200706D40299CB
:103100000198814202DB0020C04302900020694602
:10311000C87707AF012103980337C907884224D035
:10312000022011902B201290039800280CDA4042C4
:1031300003902D20129007E00A210398FCF7D4FF9A
:1031400030317F1E039039701199481E119000296B
:10315000F2DC03980028EFD1791E129808703078BD
:10316000202108404530BF1E387006A8C01BC01D76
:10317000039010980078002800D001200199411890
:103180000298C0170918039809180498401A401E9D
:103190000490E00306D421461A9B199A049800F083
:1031A0005FF8451910980078002803D01A9A1999E9
:1031B00090476D1CE00324D521461A9B199A049868
:1031C00000F04EF845191CE00098002807DB009934
:1031D0000598884203DD1598405C199901E019991A
:1031E00030201A9A904700986D1C401C009002985D
:1031F000401E0290002804D11A9A2E201999904757
:103200006D1C0199481E01900029DDDC05E038782D
:103210001A9A7F1C199990476D1C0399481E0390B8
:103220000029F4DC21461A9B199A0498ACE60000A8
:103230002D0000002B000000200000000000000016
:10324000F8B5044600251E461746880404D405E058
:1032500039462020B0476D1C641EF9D52846F8BDBC
:10326000FFB50446002581B01E46C80301D53027AE
:1032700000E02027880404D505E038460399B047CC
:103280006D1C641EF9D5284605B0F0BD0A68531CB4
:103290000B6010707047000070B50A4D04466878E6
:1032A00000280DD0084909A0FFF728FB2146064851
:1032B000FCF754FF002801D0012070BD0020687089
:1032C000002070BD08000020AC0100207561727400
:1032D00020726563763A2025730D0A0070B50F4C95
:1032E0000546A0780E4600280FD129460CA0FFF70E
:1032F00005FB00F097F8284600F0C6F80A21304692
:10330000FCF7F2FEA0810120A070E078002804D034
:103310000020E070A0706081012070BD08000020D6
:10332000756172742073656E643A2025730D0A000E
:1033300070B5104C0546A0780E4600280FD12946DE
:103340000DA0FFF7DBFA00F06DF8284600F09CF8BE
:103350000A213046FCF7C8FEA0810120A070E07869
:103360006178084304D00020E070A07060810120E3
:1033700070BD000008000020756172742073656ED6
:10338000643A2025730D0A00F8B5114C0546A07863
:1033900017460E46002810D129460EA0FFF7AEFAB8
:1033A00000F040F83146284600F05CF80A21384623
:1033B000FCF79AFEA0810120A070E07861780843B4
:1033C00004D00020E070A07060810120F8BD0000F2
:1033D00008000020756172742073656E643A2025C0
:1033E000730D0A000E480189491C018102780121F0
:1033F000002A09D0C288521C92B2C280022A03D984
:10340000002202704170C2808278002A07D042896F
:10341000521C92B2428183899A4200D9C17070478E
:103420000800002010B5044800218180417032213D
:103430000248FCF788FE10BD08000020AC01002007
:10344000064901220A700022CA808A88322A03D2E1
:10345000034B9854521C8A807047000008000020DB
:10346000AC010020F8B50D4606460024044F03E0E9
:103470003969305D8847641CAC42F9DBF8BD000057
:10348000080000207047000070B50446044D02E0BB
:103490002969641C884720780028F9D170BD000094
:1034A0000800002013B5044B012269460348FEF7CB
:1034B000A3FB00981CBD0000FFFF00008C00002053
:1034C000FDF7F2FAFEF7F9FCFEF704FCFEF74EFCFE
:1034D000FEF784FCFEF7B6FC0F48FDF7AFFF0122B4
:1034E0000E490F48FEF750FB0C490122891C0D487C
:1034F000FEF74AFB0C4C012208212046FDF7C0FADA
:103500000A4800F033FC012204212046FDF7B8FAF6
:1035100000F07AF8FCE700004000002002000020E4
:103520008C0000201C010020000800507D3D000898
:103530007CB50D46002100910191144610A1FCF7C5
:103540000DFE002818D0401D00E0401C01783039E5
:103550000A29FAD2014600E0401C02782C2AFBD14D
:10356000421A6846FCF7D6FD6846FCF712FEA842F0
:1035700003DBA04201DC01207CBD00207CBD0000FB
:103580002B4353513A00000070B50D460BA1FCF7D8
:10359000E5FD002811D0441F2046641E2178222911
:1035A000FBD1061B80212846761EFCF7CCFD324657
:1035B000611C2846FCF7AEFD304670BD4F4B000045
:1035C00070B50E460CA1FCF7C9FD002813D00F30D2
:1035D0000446054600E0641C20782C28FBD1641BBF
:1035E00080213046641EFCF7AEFD22462946304657
:1035F000FCF790FD204670BD2B514D54524543566B
:103600003A20302C302C2200F8B52A4C0025A06836
:1036100002260527032839D00ADC002811D001280A
:1036200019D002280CD100F09DFAFE2828D029E0FC
:10363000042831D0052832D0FF2801D16570A5605B
:10364000F8BD00F06BFB0028FAD07D20000100F0EF
:103650009BFB012012E0184918A0FFF73FFE00284D
:10366000EED018A0FFF718FE002801D065701EE00C
:103670006078411C61700A28E2D9FF20A060F8BD83
:103680000320FBE7FF28FAD1A760F8BD00F01CF883
:10369000FE28F7D10420F1E700F0E4F8F2E700F0AB
:1036A000CFF9022803D0FF28EFD1A570E5E7A66087
:1036B000F8BD00001C000020B80B000041540D0AAA
:1036C000000000004F4B0000F8B5354CFF27217873
:1036D0000025F537FF263348009003293AD006DC51
:1036E000002909D0012913D0022951D118E0FE295F
:1036F00050D0FF294CD150E039462BA0FFF7EEFD0A
:10370000002845D030A01BE065702078401C37E0D1
:1037100039462EA0FFF7E2FD002839D034A00FE093
:103720002F21FCF710FD1F4A35A15E3A0098FFF7E4
:10373000F5F839460098FFF7D1FD002828D03AA0C7
:10374000FFF7AAFD0028DFD16078411C61700A28CC
:103750001DD81DE02F21FCF7F6FC124A36A1313AA4
:103760000098FFF7DBF839460098FFF7B7FD00280F
:103770000ED037A0FFF790FD002803D06570FE2023
:10378000207005E06078411C6170052800D9267022
:103790000020F8BD2570FE20F8BD2570FF20F8BD83
:1037A0001C000020DA02002041542B514D544346A6
:1037B000473D2264617461666F726D6174222C30C2
:1037C0002C312C310D0A00004F4B000041542B517D
:1037D0004D544F50454E3D302C2262616E676D75E1
:1037E00079756E2E636F6D222C313838330D0A00D7
:1037F0002B514D544F50454E3A20302C3000000094
:1038000041542B514D54434F4E4E3D302C22257385
:10381000222C22646576696365222C22313233348E
:103820003536220D0A0000002B514D54434F4E4EA9
:103830003A20302C302C300041542B514D545355EC
:10384000423D302C312C222573222C300D0A0000F1
:103850002B514D545355423A20302C312C302C30C2
:1038600000000000F8B54F4C0025207804270328FD
:1038700063D007DCFF26002809D001282BD00228BE
:103880003CD13CE004287BD0FF28F9D186E04648B3
:103890002179C170434949798170424989794170E0
:1038A0004049C9790170FCF76DFC3F482F217C30FD
:1038B0000746FCF748FC3C4A042332323BA1384619
:1038C000FFF72CF87D21C9003846FFF731FD0028AD
:1038D00062D03EA008E07D22D20004213248FFF7EA
:1038E00053FD002858D03AA0FFF7D6FC002817D186
:1038F0006078411C617003284ED926704CE07D2110
:10390000C90034A0FFF714FD002845D035A0FFF70B
:10391000C3FC00280BD036A0FFF7BEFC002804D063
:1039200065702078401C207036E065702EE060786D
:10393000411C6170032829D82EE07D21C9002DA0EB
:10394000FFF7F6FC002827D026A0FFF7A5FC0028EB
:1039500017D015492B488039FFF732FE124A01462D
:10396000803A29A0FEF7CAFF0F4926488039FFF7A1
:103970000BFE0D4A0146803A2AA0FEF7BFFFCFE7B3
:1039800006E06178481C6070032905D9277003E0C0
:103990006068401C606025700020F8BD2570FF2025
:1039A000F8BD00001C0000205E02002041542B5195
:1039B0004D5450554245583D302C302C302C302C35
:1039C000222573222C25640D0A0000003E00000011
:1039D0004F4B000041542B514D54524543563F0D1F
:1039E0000A0000002B514D54524543563A00000046
:1039F0003100000041542B514D54524543563D3047
:103A00000D0A0000AC010020736F636B65742072B7
:103A100065637620746F7069633A2564202C2025D5
:103A2000730D0A00736F636B657420726563762093
:103A3000646174613A2564202C2025730D0A00000E
:103A400070B52D4C7D2122780026FF250901032A1F
:103A50002ED00ADC28480078401CC0B2002A09D0C9
:103A6000012A10D0022A41D116E0042A28D0FF2AC8
:103A70003CD13DE0A178491CC9B2A17020701FA0C3
:103A8000FEF73CFF32E0A178022903D121A0FEF726
:103A900035FF2AE0207029E026A0FFF71FFC002850
:103AA00024D027A0FFF7F8FB002819D0667004E0A7
:103AB000244800F069F9002818D02078401CE9E774
:103AC00021A0FFF70BFC002810D01DA0FFF7E4FB9E
:103AD000002805D01FA0FEF711FF2670022070BD40
:103AE0006078411C6170052800D92570002070BDE8
:103AF0002670FF2070BD00001C000020BDF8C8EB40
:103B0000B7C9D0D0C4A3CABDB4CECAFDA3BA256478
:103B10000D0A0000B5DAB6FEB4CEBDF8C8EBB7C9E1
:103B2000D0D0C4A3CABDA3ACB8B4CEBBC4A3BFE9B4
:103B30000D0A000041542B4346554E3D300D0A00FE
:103B40004F4B00008813000041542B4346554E3D17
:103B5000310D0A00D4D9BFAAC6F4B9A6C4DC0D0A37
:103B600000000000F8B54D4CFF2120780026F5310B
:103B7000FF25032841D006DC00280BD0012814D0F3
:103B8000022821D121E004286AD0FE2876D0FF281F
:103B90007BD17CE042A0FFF7A1FB002875D042A0BA
:103BA00009E066702078401C66E040A0FFF796FBB5
:103BB00000286AD040A0FFF76FFB0028F1D16078A1
:103BC000411C61700A285FD85FE0C8213EA0FFF762
:103BD00085FB002859D034A0FFF75EFB00284ED0AB
:103BE0003CA0FFF759FB002849D11F220F213C4878
:103BF000FFF79EFC0028D4D146E03AA0FFF76EFB09
:103C0000002842D0364FB8783038092822D83848B2
:103C100019210090FCF797FA35481921193005460B
:103C2000FCF791FA324814211438FCF78CFA30482A
:103C30000F22B91C1438FCF76DFA2D4A2DA1143A45
:103C40000098FEF76BFE2A4A2CA1143A2846FEF78C
:103C500065FEA6E76078411C6170032814D814E063
:103C600028A0FFF73BFB00280FD029A0FFF714FB8B
:103C7000002804D06670FE20207006E00AE060781C
:103C8000411C61701E2800D925700020F8BD2670E7
:103C9000FF20F8BD2670FE20F8BD00001C000020AB
:103CA000415445300D0A00004F4B000041542B4356
:103CB00050494E3F0D0A00002B4350494E3A2052C6
:103CC000454144590000000041542B4353510D0A13
:103CD000000000002B4353513A2039392C39390068
:103CE000AC01002041542B47534E0D0A0000000048
:103CF000900200206170702F257300006465762F9C
:103D00002573000041542B43474154543F0D0A0092
:103D10002B43474154543A203100000070B5114CF8
:103D2000114D2078002802D0012818D108E0002287
:103D300004212846FCF7A4FE2078401C20700EE0E9
:103D40007D20C00000F020F8002808D001220421C6
:103D50002846FCF795FE00202070012070BD002051
:103D600070BD00001C00002000080050002801D099
:103D700001490861704700000800002001B50121D9
:103D80006846FEF7ABFD08BD10B5094CA1780029C7
:103D900005D10A21FCF7A8F9A0810120A070E078E4
:103DA000002804D00020E070A0706081012010BDC8
:103DB00008000020010002000400060008000A00BC
:103DC0000C001000200040008000000100000000F6
:103DD00000000000000000000000000000000000E3
:103DE00000000000000000000000000001000000D2
:103DF00002000000030000000400000006000000B4
:103E0000070000000800000009000000000000009A
:103E100000000000000000000000000001000000A1
:103E200002000000030000000400000000404040C9
:103E3000404040404040414141414140404040407D
:103E40004040404040404040404040404005020229
:103E500002020202020202020202020202202020E8
:103E60002020202020202002020202020202909044
:103E70009090909010101010101010101010101042
:103E80001010101010101010020202020202888896
:103E900088888888080808080808080808080808A2
:103EA000080808080808080802020202400000008A
:103EB0002D3E0008D43E0008000000204000000015
:103EC000C0290008143F000840000020D006000070
:103ED000D0290008000000000000000000000000E1
:103EE0000000000000000000000000008534000811
:103EF00000000000000000000000000001000000C1
:103F000004000000000000000024F4000000000095
:043F100000000000AD
:04000005080000B936
:00000001FF
