:020000040800F2
:1000000010180020CD000008F94A000895330008B8
:1000100000000000000000000000000000000000E0
:10002000000000000000000000000000555700081C
:100030000000000000000000AD540008295900082D
:10004000DF00000800000000DF000008DF000008FB
:10005000DF000008DF000008DF000008DF00000804
:100060000000000011100008DF000008DF00000899
:10007000DF000008DF000008DF00000800000000CB
:10008000CD590008DF000008DF000008DF0000088D
:10009000DF000008DF000008DF000008DF000008C4
:1000A000DF000008DF000008DF00000839630008F7
:1000B00049630008596300080348854600F0FCF9CD
:1000C000004800478D77000810180020044880473A
:1000D00004480047FEE7FEE7FEE7FEE7FEE7FEE72F
:1000E000BD590008B900000830B50B460146002094
:1000F0002022012409E00D46D5409D4205D31D462E
:100100009540491B2546954040191546521E002D25
:10011000F1DC30BD01466139192900D8203870471B
:1001200003460B439B0703D009E008C9121F08C010
:10013000042AFAD203E00B780370401C491C521EBB
:10014000F9D27047D2B201E00270401C491EFBD2C6
:1001500070470022F6E710B513460A4604461946D2
:10016000FFF7F0FF204610BD421E5378521C002BB3
:10017000FBD10B781370491C521C002BF9D170472E
:1001800030B505462A460B4610781C78521C5B1C7D
:10019000002801D0A042F7D0002C03D0002802D0C4
:1001A0006D1CEFE7284630BD421C0178401C002939
:1001B000FBD1801A704700000FB400B58DB00990D4
:1001C0000B9010A900200091C0430A9000200C90D1
:1001D00006480690064807906A4609A80F9900F05D
:1001E00001F90DB008BC04B0184700000504000870
:1001F00025040008FFB50027FF4383B000205C689A
:1002000001909E681D46A9697F1C0498884700904C
:10021000296A88470028F6D10098401C0CD003209A
:1002200040028443002E19DD600614D500982B2867
:1002300009D02D280FD103E00020C04307B0F0BD46
:10024000012080020443A9697F1C04988847761E18
:100250000090002E02DD0098302803D00598002879
:1002600025D035E0012040020443A969761E7F1C99
:10027000049888470090002E03DD782805D0582880
:1002800003D00598002810D022E00598002801D05E
:1002900010281DD1012040028443A969761E7F1CCD
:1002A000049888470090102002E0082000E00A200F
:1002B00005900DE0012149020C43059A0199761E33
:1002C000514308180190A9697F1C04988847009041
:1002D000002E05DD0599009800F06EF80028E9DA97
:1002E000E96904988847A00502D40120C043A5E726
:1002F000E00722D1600611D56005019800D5404283
:1003000029680A1D2A600968220501D5087014E0D1
:10031000220701D5088010E008600EE02868011D62
:1003200029600068210502D50199017005E02107C7
:10033000019901D5018000E0016038467EE770B583
:10034000064606F027F9046805460A2200213046D1
:1003500000F07AF82C6070BDF0B51FB4064600209E
:1003600082B005464024019100901BE0019922468D
:100370000F46304600F0C2F8049A059B801A994156
:1003800010D310461946224600F0A8F8361A8F41BD
:100390000197224601200021009F00F09FF83818A5
:1003A0004D4100902046641E0028DFDC019B009830
:1003B0002946324607B0F0BD3A2800D23038202313
:1003C00002469A43412A01D310463738884201D366
:1003D0000020C04370470000026813785118016084
:1003E0001846704710B5D160044951610449116243
:1003F00000211161114600F0A1F810BDD9030008D9
:10040000290500084268002A08D001680B78491CB9
:10041000002B03D0521E06C0184670470121C16050
:10042000881E70474268002A0BD0C3680168002B01
:1004300007D183688B4204D0491E521C06C000209D
:1004400070470020C0437047F7B5009C0F46002658
:100450002578641C002D05D000F062F80068405D2E
:10046000C007F5D12B2D02D02D2D18D0641E394692
:100470002046029A00F0FEF9002F04D03968A1420C
:1004800001D1009939607105022400290BDA40423C
:10049000002803DD06F07EF80460A007FEBD012001
:1004A00080020643E3E70028F8DA06F073F80460F8
:1004B0000048FEBDFFFFFF7F064C0125064E05E00C
:1004C000E36807CC2B430C3C98471034B442F7D375
:1004D000FFF7F6FDF88500081886000810B5202AF9
:1004E00004DB0146203A9140002010BD91402023BA
:1004F0009C1A0346E3401943904010BD10B5202AD2
:1005000004DB0846203AD040002110BD0B46D34002
:10051000D0402024A21A91400843194610BD000083
:1005200000487047F485000810B50446FFF7F8FF4F
:100530000068005DC007C00F10BD0000F3B58DB0AE
:1005400000200A9001200B90002608460C300C4633
:1005500009906269012109989047051E2ED0252D2A
:100560002DD0216A8847002818D062690121099896
:100570009047216A88470028F7D1411E626909988F
:10058000904700E0761CA1690D988847216A88474A
:100590000028F7D1E1690D988847DAE7A1690D983D
:1005A00088470746A84201D1761CD2E7E1690D9839
:1005B00088477F1C02D10A98002877D049E100279C
:1005C00062693D463946099890472A280CD16269EC
:1005D000012109989047012506E00A214F433F1861
:1005E000303FEBD410200543626901210998904700
:1005F000014630390A2903D29B498F42DEDCECE701
:10060000E90600D4994F6C280AD04C2810D06828ED
:1006100024D06A282ED074280CD07A280AD00DE075
:1006200062690121099890476C2823D004211CE0BD
:10063000202005436269012109989047A760656001
:1006400065284FD026DC582839D01ADC452849D0F7
:1006500012DC252834D04128B0D143E06269012161
:1006600009989047682802D008210D43E6E7012049
:10067000C002DEE70220DCE7462833D047282CD131
:1006800030E05B2870D061282CD063286CD06428BF
:1006900023D161E06F284FD009DC662822D067287B
:1006A00020D0692826D06E2817D12EE0CDE0702802
:1006B0004DD073286FD075284ED078280DD154E0D6
:1006C000A1690D9888470546252800D16CE7E169A6
:1006D0000D9888476D1C00D16DE7BAE00A224CE006
:1006E0000A2252E0012023466A46C0430D99C046C3
:1006F000C046A3E02846402108436060A80723467F
:1007000001D5002239E000223FE0E80700D020E7D1
:100710002068011D21600068290501D5067018E7D1
:10072000290701D5068014E7A90703D5F11706604C
:1007300041600EE706600CE72846402108436060F0
:10074000A807234601D5082217E008221DE04849E2
:1007500028460840606016E0284640210843606053
:10076000A8072346BCD5B9E715E028464021084331
:100770006060A80707D5234610220120C0430D99C9
:10078000C046C0465AE0234610220120C0430D99BE
:10079000FFF730FD52E000210C910B4600916328D9
:1007A00002D05B2807D043E0E80601D40120A06016
:1007B000012000903CE062690121099890475E2881
:1007C00005D101200C900146626909989047216982
:1007D000002906D10B4601AA8F00491CD3510829D4
:1007E000FADB002835D0216900290ED1C117C90EC6
:1007F00009184A11930001AA9A1849094901411A96
:10080000012013688840034313606269012109983D
:1008100090475D28E5D10C98002808D0002001AB56
:1008200081005A58401CD2435A500828F8DB01ABCB
:1008300001202246C0430D99C046C04600280ADA6E
:10084000401C06D10B98002803D00020C0430FB0F5
:10085000F0BD0A98FBE7E90702D10A99491C0A9101
:10086000361800200B9074E6CCCCCC0CFFFFFF7F39
:10087000F1F7FFFFF7B582B0029C00272078641CD7
:1008800015460197302802D0002D15D015E02078AC
:100890000127641C782804D0582802D0002D09D0E4
:1008A0000BE0002D01D0102D07D100271025207856
:1008B000641C02E0082500E00A250026009610E0EE
:1008C0000099012769430818020C294680B2714338
:1008D00000908E183804864201D3012001902078C0
:1008E000641C2946FFF768FD0028E9DA0398002810
:1008F00005D0002F01D0641E00E0029C0460019826
:10090000002806D005F046FE02210160C81E05B091
:10091000F0BD009930040843F9E770B58C180578EC
:10092000401C6B075B0F01D10378401C2A1106D1D4
:100930000278401C03E006780E70401C491C5B1EC8
:10094000F9D12B0705D40023521E0DD40B70491C7E
:10095000FAE70378401CCB1A921C03E01D780D7057
:10096000491C5B1C521EF9D5A142D8D3002070BD92
:1009700010B5846AA16D502211420DD1A06D0121E4
:1009800049020843A065206803F08EFE00281BD0B2
:10099000A07E002807D017E0A16DC90624D5204607
:1009A00000F0E9FD10BD2068016809070CD503F0CF
:1009B00077FE0146012000290AD0A16D20221143B3
:1009C000A165E16D0143E165204600F0CDFD10BD5C
:1009D00021684A680C239A434A60A16DFF220132C4
:1009E00091430143A165EFE7216D496B884710BD35
:1009F00010B5806A816D402211438165C16D04226A
:100A00001143C16500F0B7FD10BD10B5806A00F05C
:100A1000B1FD10BDF8B50446006881688907CD0FA7
:100A200003F03AFE002826D0002D24D120688168EA
:100A30000522114010250126012910D181680F4A95
:100A40001140891C816021680320086001F01EFAB2
:100A500007460CE001F01AFAC01B022807D9A06D66
:100A60002843A065E06D3043E0650120F8BD2068B3
:100A70008068C007EED10020F8BD0000E8FFFF7FCE
:100A8000F8B5044600200090206803F005FE002819
:100A900040D120688168204A1026114000292BD1BE
:100AA0008168D5432940491C81601C4800680721A2
:100AB0008905084000020AD51A4819490068FFF75D
:100AC00013FB401C00E0401E00900028FBD1607E1C
:100AD00001281FD001F0DAF9074616E003F0DCFD2B
:100AE000002804D1206881682940491C816001F0F8
:100AF000CDF9C01B022808D9A06D3043A065E06D78
:100B000001210843E0650846F8BD20680168C94333
:100B1000C907E3D10020F8BD170000800827014075
:100B2000400D03008005002078B50646EE206B4698
:100B3000187015460C46684600F0C2FAB1206B46A4
:100B40001870684600F0BCFA23206B46187068469F
:100B500000F0B6FA300A6B461870684600F0B0FA3A
:100B60006B461E70684600F0ABFA200A6B461870A0
:100B7000684600F0A5FA6B461C70684600F0A0FAC3
:100B80006B461D70684600F09BFAFF246B461C7094
:100B9000684600F095FAFC206B461870684600F035
:100BA0008FFA6B461C70684600F08AFA6B461C7020
:100BB000684600F085FA78BD70B521488088002528
:100BC000012400280AD01F48817A012906D18572A4
:100BD0000146447248311A4804F0D7FC1A480921EA
:100BE0008289012A02D1194A14708181C289012A9D
:100BF00002D1174A1470C181028A012A02D1154A12
:100C000014700182428A012A04D1134A147041826D
:100C10001248057012481349008800280AD001289C
:100C200007D11148098802888A4202D001800F4802
:100C3000047070BD04487830C08C088070BD00001E
:100C4000A81300204C040020C2110020F002002054
:100C5000F1020020F2020020EA020020EC02002053
:100C60008E0200209E020020EE020020F3020020EF
:100C700010B5094B1C79022C0DD14018588348003F
:100C800080185864012058751871044898862020EF
:100C900098700020D87010BD4C0400205AA50000A8
:100CA00010B5094B1C79022C0DD14018588348000F
:100CB00080185864012058751871044898862020BF
:100CC00098700020D87010BD4C0400205BB5000067
:100CD00030B5094C2579022D0DD1401860834800AC
:100CE000801860646375012020712020A0700020AE
:100CF000E0700248A08630BD4C0400205BB50000C7
:100D0000FFB5314881B01E461546642100880A9C13
:100D1000FFF7EAF9002301222C481E290BD8417B5A
:100D2000012909D1017B491CC9B201734373A14256
:100D300002D3047300E042734179012907D1C17ADB
:100D4000491CC9B2C1724371B14200D3C372C67AA1
:100D50000299B64689198C461C4E490052366F5A84
:100D6000765AB74208D01A4E3270184EC3756F5A71
:100D700052367752E61E06730679022E07D1067B9D
:100D8000A64204D3124C2478012C03D042710020D7
:100D900005B0F0BD6C5A048464468475029E019CC3
:100DA000A619744634194483491941644275027185
:100DB00020218170C370037306498186C179017255
:100DC000C2710120E4E700000A0000204C0400206A
:100DD000EB0200205AA5000070B5044613480D46EA
:100DE000164664210088FFF77FF900202F290CD8D0
:100DF000A17800290AD121880122491C89B22180C9
:100E0000A270A94202D3258000E0A0702188A942E7
:100E100006D33178002903D005490978022901D089
:100E2000002070BD2080012070BD00000A0000205D
:100E30005004002010B5054A054B00204100401C1D
:100E4000545AC0B25C525028F8D310BD700C002028
:100E50009E04002010B50020064A01461154401C93
:100E6000C0B26428FAD304488183044801F046F8EC
:100E700010BD0000321000204C040020D4120020CD
:100E80000020054A01461154401CC0B26428FAD320
:100E90000248C18370470000961000204C040020D7
:100EA000F0B55A4985B00D7E08464030012D03D17A
:100EB000428A01231A4342824A7E9446012A03D180
:100EC000428A02231A4342828A7E9646012A03D12D
:100ED000428A04231A434282CA7E0492012A03D121
:100EE000428A08231A4342820A7F0392012A03D1CD
:100EF000428A10231A4342824A7F0292012A03D176
:100F0000428A20231A4342828A7F0192012A03D116
:100F1000428A40231A434282C97F0091012903D1AA
:100F2000418A802211434182384920310C78012CBA
:100F300003D1428A23021A4342824B78012B03D108
:100F4000428A5E02324342828A78012A03D1468A6B
:100F500097023E434682C9780127FF02012902D148
:100F6000468A3E434682002D03D1458A6D086D00B6
:100F700045826546002D03D1458A0226B543458248
:100F80007546002D03D1468A0425AE434682049D52
:100F9000002D03D1468A0825AE434682039D002DCD
:100FA00003D1468A1025AE434682029D002D03D10F
:100FB000468A2025AE434682019D002D03D1468AF4
:100FC0004025AE434682009D002D03D1468A8025F0
:100FD000AE434682002C04D1458AFF240134A54348
:100FE0004582002B04D1448A01235B029C43448246
:100FF000002A04D1438A01229202934343820029AA
:1010000002D1428ABA43428205B0F0BD26020020D6
:1010100010B5024800F0F4FC10BD0000F8050020F7
:1010200010B50446006C09498008800040186064CF
:10103000207814210838FFF757F804498031A1645B
:10104000C106C90E01208840E06410BD00080240BE
:101050000179084B8906890E8A00D2180265054A73
:101060004432491E42658A07920F012191408165F1
:1010700070470000FC080240F0B5846CC56C6560E8
:10108000046D002C02D0446D856D65600B4C656865
:10109000066C1C273E400127B7403D43656004684D
:1010A00063608368102B036803D099600068C26096
:1010B000F0BD9A600068C160F0BD00000000024011
:1010C0000349CA695206FCD500788862704700005F
:1010D00000380140F8B506462C4864210088FFF727
:1010E00003F8012700252A4C32290BD8607C0128FF
:1010F00009D1608D401C80B26085B04200D3668506
:10110000657400E067742079022802D0032806D0B5
:1011100039E0608DB04236D30320207165853221DD
:101120001CA006F083F900282BD01DA006F030F992
:1011300000281ED01BA006F02BF9002805D0208B1C
:10114000411C21831E2819D81BE0194806F060FEB7
:101150000221206421711749E570258388840A469D
:10116000032012210003FFF79BFDE0792072E77155
:1011700007E0208B411C2183052802D92571A57029
:10118000E5710020F8BD0120F8BD00000A00002034
:101190004C04002041542B4353510D0A0000000021
:1011A0004F4B00002B4353513A2039392C39390029
:1011B00032100020FE11002072B6FEE703494A6992
:1011C00001231B04184302434A6170470020024078
:1011D000054A5069FF23F9339843C9000143034886
:1011E00001435161704700000020024002000100ED
:1011F00030B505494C6901252C434C610260BFF3B1
:101200006F8F436030BD00000020024030B50B4CB2
:10121000002362690125AD042A436261EFF3108265
:1012200072B620C95B1C20C0DBB2402BF9D3206909
:10123000C003FCD482F3108830BD000000200240BF
:10124000F8B5054600F022FE471901263604114C78
:1012500003E000F01BFEB84214D220693042F8D1FE
:1012600021690D4801400D48206103D00C484160C0
:101270000120F8BD00F00AFE451905E000F006FE69
:10128000A84201D30320F8BD20694003F6D4002012
:10129000F8BD000000200240FA830000FB8300003C
:1012A000F0130020F8B500260546044640350096A8
:1012B000287D01280ED0012028752046FFF7AAFBC3
:1012C000024620688168C907C90F05D0A06D1021AA
:1012D000084330E00220F8BDA16DFF23013399439C
:1012E00002231943A165C168C3688907890F9B0858
:1012F0009B00C360206883680127FF073B4383602E
:101300000F4B20680DE0009F7F1C00979F4208D381
:10131000A06D0221884310210843A0652E7501208D
:10132000F8BD8768FF0FEED1C3680B43C360A06DA3
:1013300080088000401CA0652E751046F8BD000096
:1013400000F20200F8B50027064604464036009732
:10135000307D0D4601280FD001203075206803F044
:101360009FF900280AD0A06D20210843A06501271D
:10137000002030753846F8BD0220F8BD68680228A4
:101380007ED001222169D207914202D0121D9142E2
:1013900006D120682968826A4903490B0A436EE036
:1013A000C206D20E0F20216E90408143286843036D
:1013B00002D0C3074BD102E04000C00E48E08307D3
:1013C00001D5012044E0430701D5022040E0030796
:1013D00001D503203CE0C30601D5042038E0830694
:1013E00001D5052034E0430601D5062030E0030690
:1013F00001D507202CE0C30501D5082028E083058E
:1014000001D5092024E0430501D50A2020E0030589
:1014100001D50B201CE0C30401D50C2018E0830487
:1014200001D50D2014E0430401D50E2010E0030483
:1014300001D50F200CE0C30301D5102008E0830381
:1014400001D5112004E0400301D5122000E0002066
:101450009040014321666968E2698808401C904217
:1014600010D820682B68826A9C46C906C90E0F23D3
:101470008B409A4363469B001B0F8B401A4300E04E
:101480003BE082622168AB6828684A6900028243B7
:1014900018404001400902434A612868002800DBE7
:1014A00066E72B4A116807239B051940294B984290
:1014B00014D10B0212D4C0020143104603F0FCF811
:1014C000264825490068FEF70FFE0C214843401CC2
:1014D00000E0401E00900028FBD149E7204B9842D5
:1014E00003D1CB0101D4800205E01E4B9842D7D135
:1014F0004802D5D45802014325E001212069C907DB
:10150000884202D0091D884206D120682968826A73
:101510004903490B8A43826228680028C0DA0C4AD2
:10152000116807239B0519400A4B984201D1C0025C
:1015300008E00B4B984201D1800203E0094B98422E
:10154000AED140028143104603F0B6F810E7000028
:1015500008270140001000B0400D03008005002066
:10156000004000B8002000B4014901200870704715
:101570000000002070477047FEB5002704463E4635
:1015800001970097002803D0A06D002802D008E042
:101590000120FEBD204600F015F90020E065542131
:1015A000085520688168C900C90F11D181687C4A3B
:1015B000114001221207114381607B48794900687C
:1015C000FEF792FD400000E0401E00900028FBD195
:1015D00020688168C900C90F08D1A16D102211438C
:1015E000A165E16D01221143E165174603F058F84A
:1015F000A16DC90601D4002804D0A06D10210843B4
:10160000A065CAE0A06DFF21013188430221084393
:10161000A065206803F040F80146204620300029EC
:101620002FD12268D16818239943A3681943D16048
:10163000626C216C636811439B0FA26C9B071A4379
:101640001143E26C11430E43017F012900D10E4387
:1016500022681169554B19403143116103226168B9
:10166000920791420DD05A0791420AD052009142FE
:1016700007D04F4DAB680F229204934311400B43A8
:10168000AB60217E8D03617EC9030D43A17E4A03B9
:101690001543226B002A01D0012212031543E26890
:1016A00015432269002A02DA5200520801E00122A1
:1016B00052051543027B007852001543019A1543E9
:1016C000012809D1002955D0A06D20210843A0652B
:1016D000E06D01210843E065606A002806D0FF2222
:1016E000C1321040A16A28430D4605432168C868ED
:1016F000304A10402843C860216808692E4A1040CB
:10170000304308610021626B206802F0DCFF2B4946
:10171000A26B206802F0D7FF0F212069C94300287F
:101720002CD001225205904216D1226E0020830057
:101730001646DE40F3431B0702D0401C0828F6D3B0
:1017400001281BD02068836A237F9B001B1FDB06B8
:10175000DB0E9940114381622068C0681849084037
:10176000A84210D10020E065A06D80088000401CD8
:10177000A06513E0012000040543ADE72068826AFC
:101780000A438262E8E7A06D0221884310210843E2
:10179000A065E06D01210843E06501273846FEBDE4
:1017A000E8FFFF7F400D03008005002002FCFF1FC3
:1017B000002701401902FEFF02FCFFDF04FFFF07C4
:1017C000E7FF3F8370B586B0054614216846FEF7F3
:1017D000C0FC1E492868884235D11D480268012195
:1017E00009050A430260006808400590184840381F
:1017F000416B012211434163406B0026104005906C
:10180000732000900320019005206946029600078E
:1018100000F080FA104C0F482060A6600520E660BA
:10182000606080202061400060618000A061202015
:101830002662E061204600F03FF9002801D0FFF762
:10184000BBFC2C65A56206B070BD00000024014001
:101850004010024008000240F8050020F7B5044699
:10186000006802F01DFF002845D125464035287D3F
:10187000012840D001272F752068C1681F4EC90775
:101880000CD102F009FF002804D0206881683140A3
:10189000891C81602068C1683943C1602046FFF718
:1018A000EFF8002826D1A06D15490840FF2101312D
:1018B0000843A0650020E065226D1249D162226DC7
:1018C00011491163226D1149516322681C21116075
:1018D0002875206841681022114341602168206DFD
:1018E0004031029B019A00F039F921688A68324040
:1018F000121D8A60FEBD0220FEBD0000E8FFFF7FD2
:10190000FEF1FFFF710900080B0A0008F109000849
:10191000F0B5002808D0014620314A79022A05D0C6
:101920000422C263002008710120F0BD0268136820
:101930000E24A3431360426C1468FF2301339C43BD
:101940001460026814686408640014600C4A5568E6
:10195000066C1C24264001242746B7403D435560B1
:10196000826CC56C5560026D002A05D015689D43D8
:101970001560826D406D42604C7100200871F0BDB1
:1019800000000240F8B500240246203251790229B5
:1019900003D00421C16301242DE001680B680E25EA
:1019A000AB430B6001680B685B085B000B60416C2C
:1019B0000B68FF250135AB430B6010494D68066C81
:1019C0001C231E4001231F46B7403D434D60816CE0
:1019D000C56C4D60016D002906D00E681D02AE4336
:1019E0000E60416D856D4D60537100211171816BE9
:1019F000002900D088472046F8BD000000000240C2
:101A0000F0B42C490C6802681368056C1C273D4033
:101A10000426AE40264211D05E070FD513689B0600
:101A200003D4146804239C4314604B68046C0422A0
:101A30003C40A24013434B60016B1CE00227AF40C7
:101A4000064627402036002F19D09F0717D5136868
:101A50009B0605D413680A24A34313600122727104
:101A60004B68046C1C2214400222A24013434B60BA
:101A700000213171C16A00291AD0F0BC084708273B
:101A8000AF40274214D01B0712D513680E24A3437E
:101A900013604B68046C1C22144001221546A540BB
:101AA0002B434B60C263727100213171416BE2E7DD
:101AB000F0BC70470000024070B504003FD02548DC
:101AC000256814212818FEF70FFB800020640220EF
:101AD00026462036707128681F4908402860E16852
:101AE000A06862690843216911430843A16908435A
:101AF000E1690843216A084321680A6810430860C5
:101B00002046FFF78DFA0121A0688903002588424D
:101B100000D165602079616C8006800E0860A06C41
:101B2000E16C41606068401E03280AD82046FFF738
:101B30008FFA206D0560606DA16D416004E00120A9
:101B400070BD25656565A565E5630120707135711A
:101B5000002070BDF8FFFDBF0F80FFFFF8B5044601
:101B60008C4620300179002501290BD00126067111
:101B700041790027012907D08021E1630771012500
:101B80002846F8BD0220F8BD02214171E7632068B4
:101B9000016849084900016061462046FFF76CFA78
:101BA000206B00282068016801D00E2205E0042285
:101BB00091430160206801680A2211430160606C52
:101BC0000168CA03074902D502680A430260206D12
:101BD000002802D002680A4302602068016831438D
:101BE0000160CDE700010000F8B51F4E04463078D3
:101BF0000F4601280AD001203070002070607D203F
:101C0000C000FFF71DFB002802D029E00220F8BD2C
:101C1000042161602268042A03D0491F3960A56845
:101C200014E00846FFF7CAFA7D20C000FFF708FB62
:101C300016E029466068FFF7CBFA7D20C000FFF769
:101C4000FFFA002801D03D6005E06D1CE268A16844
:101C50008918A942EDD805494A6902239A434A6185
:101C600000213170F8BD0000F01300200020024078
:101C7000054901204A69C3071A434A614969002995
:101C800000DA00207047000000200240F0B51FB4C9
:101C9000144C06462078154601280AD001202070F1
:101CA00000277D20C0006760FFF7CAFA002803D034
:101CB00010E0022005B0F0BD012E0DD0294601989C
:101CC000FFF7A4FA7D20C000FFF7BAFA06494A6977
:101CD000B2434A612770EDE72A46039B0198FFF75C
:101CE00087FAEFE7F01300200020024006490020A9
:101CF0004A69002A07DA054A8A60054A8A60496902
:101D0000002900DA012070470020024023016745C6
:101D1000AB89EFCDFCB5002301259AE022462C4685
:101D20009C4022406FD04E68012E05D0022E03D079
:101D3000112E01D0122E16D186680327B4465E00FC
:101D4000B646B7406646BE43B446CF687646B7400F
:101D50006646374387604668A6430C79E406E40F7D
:101D60009C4034434460C6685F000324BC40A446E2
:101D7000A6438C68BC403443C4604C68022C01D03C
:101D8000122C14D1DC08A40024180194266A5C07E4
:101D9000B646E60E0F24B44000967646A643B646F5
:101DA0000C69009EB44076462643019C2662046876
:101DB0006646B4430E79B607B60FBE4026430660AA
:101DC0004C68E40044D59E08254CB6003419A4465E
:101DD000246E9E07F60E0F27B740BC4305273F072A
:101DE000B84201D1002710E01E4FB84201D10127AF
:101DF0000BE01D4FB84201D1022706E01B4FB8424D
:101E000002D1032701E023E00527B74027436446BA
:101E10002766134E803634684F689443FF0300D51D
:101E20001443346074684F689443BF0300D514436F
:101E300074600B4C26684F689643FF0200D516432A
:101E4000266066684F689643BF0200D516436660F9
:101E50005B1C0A681446DA4000D05FE7FCBD000056
:101E6000001802400004005000080050000C005010
:101E7000426913460B401B0491430B438361704737
:101E8000002A01D0816170478162704701488068F3
:101E9000704700007405002070B504000FD0216861
:101EA0001348086021681348086003CC416020682B
:101EB000083C21688860FFF7E9FF054608E001203B
:101EC00070BDFFF7E3FF401B302801D9032070BD30
:101ED0002068C0680028F4D120680269E1688A425D
:101EE00001D0016101E004490160002070BD0000E3
:101EF000CCCC000055550000AAAA00000068024999
:101F00000160002070470000AAAA00000248816812
:101F100002788918816070477405002010B5084860
:101F200000240168821511430160204600F00AF880
:101F3000002801D0012401E000F028F8204610BD5F
:101F40000020024070B50F4E00243178054600296C
:101F500015D07D20C000FEF7C7F801460A4800688A
:101F6000FEF7C2F800F01EFC002808D1042D06D2AE
:101F700000222946401E00F02FF8756000E0012481
:101F8000204670BD740500208005002008B50B4870
:101F90000168012211430160006810400090074869
:101FA0004038C26B01040A43C263C06B0840009012
:101FB0000320400200F0E0FB08BD0000401002409A
:101FC000002805DBC106C90E0120884001490860D0
:101FD0007047000000E100E010B504F0B9FA10BD50
:101FE00010B50F4C21680322520291430143216036
:101FF000C11FFF39FA390ED10A480621006848434B
:102000000949FEF771F8401C02E0002805D0401E87
:1020100061694905F9D4002010BD032010BD0000FE
:10202000007000408005002040420F00F8B50446D3
:1020300000680026524D800358D55148002740388B
:10204000C06BC00009D44E484038C26B01040A433B
:10205000C263C06B0840012700904A48016882159E
:1020600011430160FFF712FF009005E0FFF70EFF3C
:102070000099401A022825D842480068C005F5D5C5
:10208000E8690321090208400FD0A16981420CD000
:10209000E86903210902EA698843012109040A4326
:1020A000EA61EA698A43EA61E861C0070FD0FFF795
:1020B000EDFE009008E0FFF7E9FE0099411A324872
:1020C000814201D9032609E0E8698007F3D5E86970
:1020D000032109028843A1690843E861002F05D064
:1020E00027484038C16B02049143C1632078C00780
:1020F00005D06869616880088000084368612078BD
:10210000800705D568690C218843A1680843686188
:102110002078800606D56869032109038843E168B1
:10212000084368612088400411D5686961698000AE
:10213000800808436861012160698907884206D1E7
:102140000F484038C168012212041143C160208841
:10215000000512D568690321890388432169084372
:102160006861012120698903884206D1044840380A
:10217000C168012212041143C1603046F8BD00005D
:10218000401002400070004088130000F8B50F4670
:10219000060043D04D4D28684007400FB84213D287
:1021A0002868C008C00038432860FFF76FFE044667
:1021B00005E0FFF76BFE011B4548814261D82868A6
:1021C0004007400FB842F4D13068424C81070DD52A
:1021D000400704D5A068072109030843A060A06850
:1021E0000F2109028843B1680843A0603078C00716
:1021F00032D0706801280AD002280BD000280FD0F6
:102200003449403103280ED0C969890704E02168A8
:10221000890301E021688901002906DB0120F8BD5E
:1022200021684905F8E7096AEFE7A168C908C9000C
:102230000143A160FFF72AFE009006E0FFF726FEAB
:102240000099411A224881421BD8A06838210840D1
:102250007168C9008842F1D128684007400FB84230
:1022600017D91A480168C908C90039430160FFF746
:102270000DFE054607E0FFF709FE411B14488142A9
:1022800001D90320F8BD114800684007400FB8424B
:10229000F1D13078400706D5A068072109038843AB
:1022A000F1680843A06000F031F8A1683C22890978
:1022B0001140094A515CC906C90EC8400749086067
:1022C00007480068FFF73EFEF8BD0000002002400E
:1022D00088130000001002401085000880050020CF
:1022E000780500200648074900688968064A4904BD
:1022F000490F8900515CC906C90EC84070470000EB
:1023000080050020001002405085000810B5204CC8
:10231000A068204A8006400F16D0A0688006410FB2
:10232000501001290FD0A1688906490F022912D047
:10233000A0688006400F042823D0A0688006400FC4
:10234000032821D0002010BD206801218004400F07
:102350008140104612E0E1688B07E1689B0F490657
:10236000490F491C032B00D01046FDF7BDFEE16864
:102370004904490E4843E168490F491CFDF7B4FE82
:1023800010BD0120C00310BD7D20000210BD000063
:10239000001002400024F400F8B504007ED020783C
:1023A0003827C007EB4D002846D0A868E9683840B8
:1023B0008907890F102802D008280BD001E00329D3
:1023C00008D001206268000482420AD129680143D2
:1023D000296015E0286880032ED560680028DDD0CC
:1023E0002AE0052301211B0489049A422A6802D1AC
:1023F0000A432A60EAE782432A6028688843286003
:10240000606800280CD0FFF741FD064604E0FFF7A6
:102410003DFD801B642873D828688003F7D50BE046
:10242000FFF734FD064604E0FFF730FD801B64280B
:10243000F1D828688003F7D42078800769D5A86888
:10244000E96838408A070721920FC902102802D094
:10245000002813D001E0022A10D0E068002846D0FE
:10246000286888432169084328602868FF210131D2
:1024700008432860FFF70AFD06462CE02A6852054B
:1024800002D5E268002A89D06A687F231B029A433A
:1024900063691B021A436A60002800E08DE00ED1D8
:1024A000286888432169084328602868012180043E
:1024B000400F8140A848FDF717FEA8490860A848CA
:1024C0000068FFF73FFD002877D122E0FFF7DEFC30
:1024D000801B02289FD828684005F7D568687F21AF
:1024E00009028843616909020843686011E02968AC
:1024F000FF20013081432960FFF7C8FC064605E054
:1025000098E0FFF7C3FC801B022884D828684005A8
:10251000F7D42078934E00072ED5A8688006400F88
:1025200003280AD0A0690028306A16D00121084388
:102530003062FFF7ABFC07460BE0306A80071BD523
:10254000A06900289FD017E0FFF7A0FCC01B02285D
:1025500070D8306A8007F7D50EE04008400030623E
:10256000FFF794FC074604E0FFF790FCC01B02282D
:1025700060D8306A8007F7D4207840076CD5A86807
:1025800000278006400F042818D0E86BC00008D44C
:10259000E96B012000070143E963E96B0140012772
:1025A000009171480168C90519D401688215114369
:1025B0000160FFF76BFC00900DE083E0F06980079D
:1025C0004AD5A06800287DD046E0FFF75FFC00995F
:1025D000401A02282ED864480068C005F5D5A168C5
:1025E000012910D004200529F16911D049084900BA
:1025F000F161F1698143F161A068002816D0FFF70D
:1026000045FC00900EE0F06901210843F061F3E71A
:102610000143F161F7E7FFF739FC0099411A53488C
:1026200081426DD8F0698007F5D50EE0FFF72EFCEA
:10263000009007E064E0FFF729FC0099411A4B483D
:1026400081425DD8F0698007F5D4002F04D0E96B92
:10265000012000078143E963E069002877D0A96879
:102660008906490F022951D001263606022828681A
:102670000DD0B0432860E86880088000E860E86812
:102680003B490840E860FFF701FC04463AE0B043EC
:102690002860FFF7FBFB074604E0FFF7F7FBC01BD2
:1026A00002282DD828688001F7D4616A206AA26ABE
:1026B0000843E16A120211430843216B0843E968A9
:1026C0002C4A00E041E011400843E86028683043AC
:1026D0002860E868012109070843E860FFF7D6FB96
:1026E000044604E0FFF7D2FB001B022808D8286844
:1026F0008001F7D52BE0FFF7C9FB001B022801D9A9
:102700000320F8BD28688001F5D420E00128F8D026
:10271000E868226A8107890F914216D17021626AA6
:102720000140914211D17F21A26A090201401202A7
:1027300091420AD11F214904E26A0140914204D129
:10274000400F216B4007884201D00120F8BD0020D6
:10275000F8BD0000001002400024F40080050020B5
:1027600078050020401002400070004088130000EF
:10277000FFFFFEEF8C80C11F03490A6803235B0241
:102780009A4302430A607047000001400422044952
:102790000428086902D09043086170471043FBE7A2
:1027A00000E000E0094910B5401E884201D901202F
:1027B00010BD074C60610321081F03F0C9FE002013
:1027C000A06107202061002010BD0000FFFFFF0076
:1027D00000E000E07047704770470000F0B5034626
:1027E00020331A7F012A27D001221A7702225A7732
:1027F00004686268A568114FBC4205D116460F22D5
:10280000120596434A6832437026B2430E68164357
:1028100066600068B84205D0094A904202D0094A71
:10282000904204D180228968954329438160012028
:10283000587700201877F0BD0220F0BD002C014031
:10284000000400400040014070B5040005D025465A
:102850002035687F002802D006E0012070BD0020EE
:102860002877204600F016F802206877211D20689E
:1028700003F0B4F8012240342272AA77EA7722707A
:102880006270A270E27022716271A271E2716A7765
:10289000002070BD08B50068094988420FD1094879
:1028A000C26B02210A43C263C06B00220840009041
:1028B00011461020FFF790FB1020FFF781FB08BDA9
:1028C0000004004000100240014620314A7F012AE6
:1028D00001D00120704702224A770168CB680122AB
:1028E0001343CB6000680B49884205D00A498842EF
:1028F00002D00A49884207D18168094B194006294C
:1029000005D0DB1F994202D001681143016000200D
:1029100070470000002C01400004004000400140CE
:102920000700010070B5054604462035287F0128C0
:1029300017D001262E7702206877226890682E4BE8
:102940001840FF231B02984390600A68502A32D037
:102950000EDC202A4CD006DC002A49D0102A3BD1BC
:1029600046E0022070BD302A42D0402A34D137E000
:10297000602A28D0702A12D001200003121A2BD00E
:10298000824229D1CB684A688968206803F06AF8D6
:102990002068816801229203114381601CE0CB68AA
:1029A0004A688968206803F05DF8216888687722A2
:1029B0001043886010E0CA684968206803F068F82E
:1029C0005021206806E0CA684968206803F071F861
:1029D0006021206803F052F86E770020287770BDE0
:1029E000CA684968206803F053F840212068F1E77D
:1029F00011462068EEE7000088FFCEFF7047000018
:102A000070B50446006801690025C943890700299B
:102A100015DBC168C943890711D4E91E0161012092
:102A20002077206880698007204602D0FFF7E6FF04
:102A300004E000F0A7F8204600F0A5F8257720680C
:102A40000169C943490717D4C168C943490713D469
:102A50000421C94301610220207720688069800534
:102A6000800F204602D0FFF7C9FF04E000F08AF88B
:102A7000204600F088F8257720680169C9430907D6
:102A800016D4C168C943090712D40821C94301619A
:102A9000042020772068C0698007204602D0FFF715
:102AA000ADFF04E000F06EF8204600F06CF82577EA
:102AB00020680169C943C90617D4C168C943C9065A
:102AC00013D41021C9430161082020772068C06910
:102AD0008005800F204602D0FFF790FF04E000F051
:102AE00051F8204600F04FF8257720680169C94366
:102AF000C90708D1C168C943C90704D1891E01614A
:102B0000204600F041F820680169C943090609D44C
:102B1000C168C943090605D48021C9430161204623
:102B2000FFF759FE20680169C943C90508D4C16887
:102B3000C943090604D4124901612046FFF74AFE41
:102B400020680169C943490609D4C168C9434906D7
:102B500005D44021C9430161204600F03BF82068BC
:102B60000169C943890609D4C168C943890605D4E6
:102B70002021C94301612046FFF72EFE70BD0000F1
:102B8000FFFEFFFF7047704710B505F09BFA0D4838
:102B90000188491C8AB202804188491C4180818891
:102BA000491C818008498A4201D30021018004F038
:102BB00081FA06480078012803D105490888401C9D
:102BC000088010BD0A000020409C00004D04002039
:102BD00078040020704710B5014680310A78012A38
:102BE00015D001220A7024224A6002681368146812
:102BF0006408640014600122520793430022426675
:102C000000680360202048600A70104610BD022052
:102C100010BD7047704770B5044605468034207873
:102C200001281AD0012020702420606028680668DE
:102C300002685208520002602868826807235B0617
:102C40009A430A438260284602F046FF28680660DD
:102C5000202060600020207070BD022070BD70B523
:102C60000446054680342078012819D001202070C0
:102C700024206060286806680268520852000260DA
:102C800028688268D200D2080A438260284602F08F
:102C900023FF28680660202060600020207070BD3F
:102CA000022070BD7047704770470000F8B5036898
:102CB0000446D96918689A68914D0E462E402546FB
:102CC0008035002E6CD08F4E8F4F16400740374313
:102CD0007FD0CF0706D0C70504D501271F62EB6858
:102CE0003B43EB608B0708D5D30706D02768022348
:102CF0003B62EB6804273B43EB604B0708D5D307E7
:102D000006D0276804233B62EB6802273B43EB6055
:102D10000B0709D520230340334305D02668082339
:102D20003362EE681E43EE600B0509D5430107D5FB
:102D300001232668DB023362EB6820263343EB6015
:102D4000EB68002B3AD089060AD520210840C90536
:102D50000A40104304D0216F002901D02046884743
:102D6000E86821688968490602D4282108422AD0E7
:102D7000204602F083FF2068816849061FD58268DB
:102D800040218A438260E06F002818D05F49816348
:102D9000E06FFEF7F7FD002810D0E06F816B0CE0CC
:102DA0008E0616D5012720263F07064017403E43D2
:102DB0000FD0216F7FE00CE020468847F8BD204609
:102DC000FFF772FFF8BD2046FFF76EFF0020E860B6
:102DD000F8BDE66E012E59D1CE0657D5C60655D59B
:102DE00010221A622068816826464906403600296A
:102DF0002BDAE36F196849680904090CE8D0B78B2E
:102E00008F42E5D9F18319680968890618D40168E9
:102E10001301994301602068816849084900816075
:102E2000206881684023994381602020A8600020A9
:102E3000E0662068016891430160E06FFEF768FD7D
:102E4000B08BF18B401A81B21CE0B18BF38BC91AA5
:102E5000F38B89B2002BBBD00029B9D00368FF26C1
:102E60002136B343036020688368264EF64333401F
:102E700083602020A8600020E06620672068036847
:102E8000934303602046FFF7C4FEF8BDCE0208D589
:102E9000560206D50120000518622046FFF703FF01
:102EA000F8BD0E060BD501278026FF0506403A40E7
:102EB000164304D0616F002900D07DE7F8BD4A06B3
:102EC0000DD542060BD51A68204640218A431A6068
:102ED000202169600021616700F048F9F8BD0A020D
:102EE00005D5420003D52046FFF7DCFEF8BDC90139
:102EF000FCD50028FADA2046FFF78CFEF8BD00006A
:102F00000F0800000100001020010004695C0008A7
:102F100070B5040005D0254680356868002802D0C9
:102F200006E0012070BD00202870204600F026F841
:102F30002420686020680168490849000160204633
:102F400003F070F80128EDD0A06A002802D02046D6
:102F500002F0F2FD206841680922D20291434160EB
:102F6000206881682A2291438160206801680122DB
:102F700011430160204602F045FE70BDF0B587B0F8
:102F8000044614216846FDF7E4F8454D26680520FF
:102F900000224449012402230007AE421FD1414DC3
:102FA00040352F685E0337432F602D683540059507
:102FB0004D6B25434D63496B0292214005910321DE
:102FC000490200910494019303926946FEF7A2FE20
:102FD000002211461B20FEF7FFFF1B2020E0324D90
:102FE000AE4221D1CE6B01256D042E43CE63CE6B54
:102FF0002E4005964D6B25434D63496B0292C907E0
:10300000C90F05910C210091049401930392694624
:10301000FEF780FE012200211C20FEF7DDFF1C20B0
:10302000FEF7CEFF07B0F0BD204F0325AD02042010
:10303000BE4214D1CE6B04042643CE63CE6B264031
:1030400005964C6B1C434C63496B009519400591E8
:1030500004900292019303926946154817E0154FB8
:10306000BE42DFD1CF6B0126F6043743CF63CF6B6F
:10307000374005974E6B06434E63496B0095014000
:103080000591029204940193039269460A48FEF75F
:1030900041FE002201211D20FEF79EFF1D20BFE7FB
:1030A0000038014000100240004400400048004049
:1030B00000040050004C00400008005030B50346AA
:1030C00080339C68202C19D100290BD0002A09D00C
:1030D000012584682D03AC4206D10469002C03D17C
:1030E000CC0701D0012030BD1C78012C06D0012472
:1030F0001C700023C36603F061F830BD022030BDB0
:1031000010B5044600681249884206D104F0C2FF97
:10311000012210491048FFF7D1FF1049206888426A
:1031200009D101F093FA05F03FF80A490122491C40
:103130000B48FFF7C3FF0B492068884207D103F013
:1031400093FF04490122891C0748FFF7B7FF10BD10
:10315000004C0040140000205008002000380140BE
:10316000A006002000440040300700207047000007
:10317000F0B52A4804270146447B0A7B0023012539
:103180002031012C02D0002C05D008E0002A06D105
:1031900043738F7203E0012A01D103738D72204AB9
:1031A000167D8673947DC473012C02D0002C05D04B
:1031B00008E0002E06D1C3738F7203E0012E01D107
:1031C00083738D72847B9482D482144C46782478E5
:1031D0000727012E02D0002E05D008E0002C06D1D2
:1031E0004370CF7103E0012C01D10370CD711478CD
:1031F00084709678C670012E02D0002E05D008E0AB
:10320000002C06D1C370CF7103E0012C01D1837073
:10321000CD7181781180C0785080F0BD26020020E9
:10322000C2110020F0B52B4804270146447C0A7CDB
:10323000002301252031012C02D0002C05D008E00C
:10324000002A06D14374CF7203E0012A01D103742E
:10325000CD72214A167E8674947EC474012C02D0ED
:10326000002C05D008E0002E06D1C374CF7203E015
:10327000012E01D18374CD72847C1483C47C548369
:10328000144C467924790727012E02D0002E05D050
:1032900008E0002C06D143710F7203E0012C01D12C
:1032A00003710D72147984719679C671012E02D062
:1032B000002E05D008E0002C06D1C3710F7203E088
:1032C000012C01D183710D7281799180C079D080F8
:1032D000F0BD000026020020C2110020F0B52B48EE
:1032E00004270146447D0A7D002301252031012C5D
:1032F00002D0002C05D008E0002A06D143750F73D8
:1033000003E0012A01D103750D73214A167F8675EA
:10331000947FC475012C02D0002C05D008E0002E4B
:1033200006D1C3750F7303E0012E01D183750D73B0
:10333000847D9483C47DD483144C467A247A0727F1
:10334000012E02D0002E05D008E0002C06D14372D9
:103350004F7203E0012C01D103724D72147A847212
:10336000967AC672012E02D0002E05D008E0002CFD
:1033700006D1C3724F7203E0012C01D183724D72EA
:10338000817A1181C07A5081F0BD000026020020B0
:10339000C2110020FEE7000010B50248FEF7AEFDA6
:1033A00010BD0000D4120020F0B5244814260146B8
:1033B00043780A780C2700242031012B02D0002BFF
:1033C00012D015E0002A13D14470CA79062A09D018
:1033D000072A07D00F2A05D0082A03D0152A01D0C2
:1033E000CF7105E0CE7103E0012A01D10470CA71EA
:1033F000134A157885709378C370012B02D0002B87
:1034000012D016E0002D14D1C470CB79062B09D050
:10341000072B07D00F2B05D0082B03D0152B01D07D
:10342000CF7106E0CE7104E0012D02D1847001233A
:10343000CB7181781180C0785080F0BD26020020C9
:10344000C2110020F0B524481426014643790A79B8
:103450000C2700242031012B02D0002B12D015E0C4
:10346000002A13D144710A7A062A09D0072A07D004
:103470000F2A05D0082A03D0102A01D00F7205E0C8
:103480000E7203E0012A01D104710A72134A157900
:1034900085719379C371012B02D0002B12D016E0F5
:1034A000002D14D1C4710B7A062B09D0072B07D03D
:1034B0000F2B05D0082B03D0102B01D00F7206E084
:1034C0000E7204E0012D02D1847101230B72817907
:1034D0009180C079D080F0BD26020020C21100206A
:1034E000F0B5244814260146437A0A7A0C270024B2
:1034F0002031012B02D0002B12D015E0002A13D16D
:1035000044724A7A062A09D0072A07D00F2A05D022
:10351000082A03D0102A01D04F7205E04E7203E052
:10352000012A01D104724A72134A157A8572937A7C
:10353000C372012B02D0002B12D016E0002D14D143
:10354000C4724B7A062B09D0072B07D00F2B05D05E
:10355000082B03D0102B01D04F7206E04E7204E00E
:10356000012D02D1847201234B72817A1181C07ABC
:103570005081F0BD26020020C2110020F8B5FFF7EF
:10358000F7FD434D0126E87DA97E88423AD0414CA3
:103590001027002807D1002211211046FDF7C4FA98
:1035A000A08A3843A082E87D012807D10122112199
:1035B0000020FDF7B9FAA08AB843A082E87D02286E
:1035C00007D1022211210020FDF7AEFAA08AB843EC
:1035D000A082E87D032807D1032211210020FDF7F6
:1035E000A3FAA08AB843A082E87D042807D1042268
:1035F00011210020FDF798FAA08AB843A082E87D47
:10360000A8766E77224C20342078E178884228D042
:10361000002809D100220E211046FDF785FA00226C
:103620000F211046FDF780FA2078012809D10122E8
:103630000E210020FDF778FA01220F210020FDF76E
:1036400073FA2078032809D103220E210020FDF708
:103650006BFA03220F210020FDF766FA2078E07054
:10366000A671A08A002805D10949173108461038EB
:1036700004F082F8A08A012801D103F009FF044A6E
:103680008A3211466A390846163804F0E7FEF8BD5A
:1036900046020020000C0050F8B5FFF7C3FD434D73
:1036A0000126287EE97E88423AD0414C2027002816
:1036B00007D1002219211046FDF736FAA08A3843B7
:1036C000A082287E012807D1012219210020FDF7C0
:1036D0002BFAA08AB843A082287E022807D10222B2
:1036E00019210020FDF720FAA08AB843A082287E85
:1036F000032807D1032219210020FDF715FAA08A1B
:10370000B843A082287E042807D104221921002072
:10371000FDF70AFAA08AB843A082287EE876AE7741
:10372000224C203460782179884228D0002809D1A1
:10373000002214211046FDF7F7F900221721104648
:10374000FDF7F2F96078012809D101221421002047
:10375000FDF7EAF9012217210020FDF7E5F960786D
:10376000032809D1032214210020FDF7DDF90322EB
:1037700017210020FDF7D8F960782071E671E08A02
:10378000002805D1094918310846103803F0F4FF24
:10379000E08A012801D103F0F7FE044A9232114673
:1037A00071390846163804F059FEF8BD460200206B
:1037B000000C0050F8B5FFF791FD434D0126687EDF
:1037C000297F88423AD0414C4027002807D1002267
:1037D00018211046FDF7A8F9A08A3843A082687E18
:1037E000012807D1012218210020FDF79DF9A08AA8
:1037F000B843A082687E022807D102221821002047
:10380000FDF792F9A08AB843A082687E032807D109
:10381000032218210020FDF787F9A08AB843A0826F
:10382000687E042807D1042218210020FDF77CF9C6
:10383000A08AB843A082687E2877EE77224C203495
:10384000A0786179884228D0002809D10022162169
:103850001046FDF769F9002215211046FDF764F9BD
:10386000A078012809D1012216210020FDF75CF97A
:10387000012215210020FDF757F9A078032809D16E
:10388000032216210020FDF74FF903221521002005
:10389000FDF74AF9A07860712672208B002805D1C7
:1038A000094919310846103803F066FF208B0128BA
:1038B00001D103F0E5FE044A9A32114678390846F0
:1038C000163804F0CBFDF8BD46020020000C005075
:1038D000F8B5FFF769FDFC4C0126E07DA17E88422A
:1038E00042D0002809D1002211211046FDF71CF911
:1038F000F6481022818A11438182E07D012809D196
:10390000012211210020FDF70FF9F0481021828AD1
:103910008A438282E07D022809D1022211210020FF
:10392000FDF702F9E9481021828A8A438282E07D0C
:10393000032809D1032211210020FDF7F5F8E348FF
:103940001021828A8A438282E07D042809D10422E0
:1039500011210020FDF7E8F8DC481021828A8A4313
:103960008282E07DA0766677D74D20352878E97889
:10397000884228D0002809D100220E211046FDF7E8
:10398000D3F800220F211046FDF7CEF82878012841
:1039900009D101220E210020FDF7C6F801220F21D6
:1039A0000020FDF7C1F82878032809D103220E2151
:1039B0000020FDF7B9F803220F210020FDF7B4F82D
:1039C0002878E870AE71C049E27960310846002776
:1039D00080380B2A7ED009DC130002F0ABFD0B41CE
:1039E0001F31426165A3B3D3E5E74100152A72D0C8
:1039F00009DC0C3A130002F09DFD09E6E9F7B33348
:103A0000333333F53300162A66D0172A1DD0652AC2
:103A100066D0662A24D10320E075D5E0AA48E77570
:103A2000A98F723003F040FC002819D0688EFF2166
:103A3000EF31801F884201D20320D1E00220CFE085
:103A400026740420E0751720CAE0A0481022818A5D
:103A500091438182012211210020FDF765F8E6756E
:103A6000F8BD99480A21723003F01EFC0028F7D0F7
:103A7000688E0A2801D20221E171A98D4900814294
:103A800001D80221E17101460A39BE2901D8042179
:103A900040E0FF212C31C9388842E1D205209FE067
:103AA0000220E07506209BE087480221723003F077
:103AB000FBFB0028D4D06F836773688E65210A28CA
:103AC00000D2E171AA8D5200824200D8E171024613
:103AD0000A3A02E072E030E17CE0BE2A1AD9D8E767
:103AE00079480221723003F0DFFB0028B8D0688EDD
:103AF0000A2801D20221E171A98D4900814201D831
:103B00000221E171298C012906D001460A39BE291A
:103B1000BFD80D21E171BCE701460A39BE29B8D8EA
:103B20000B21F7E731460176817606466648297013
:103B30000A21723003F0B8FB002891D03776B776AF
:103B400007204DE02079012801D10820E0715E486E
:103B50000988723003F0A8FB002881D00F203FE0D5
:103B6000314641760646C1760320287056480A2120
:103B7000723003F099FB00289CD07776F7762F708F
:103B800009202DE0314641760646C1760320287093
:103B90004D480A21723003F087FB00288AD02F702D
:103BA0007776F7760A201BE0A675D6E0607B401C8E
:103BB000C0B2607303287DD30B2011E0E6740320AC
:103BC000E07566200CE0E6752F70F8BD0220E07508
:103BD000162005E0E67400202E73C04388800E2076
:103BE000E071F8BD9CE0FFE73948394A4389288FE6
:103BF00020329C46834201D353894B80844505D2B1
:103C0000334B1B89834201D313894B80304B1B8973
:103C1000834205D22E4BDB88834201D3D3884B806D
:103C20002B4BDB88834205D2294B9B88834201D3EF
:103C300093884B80264B9B88834205D2244B5B881C
:103C4000834201D353884B80214B5B88834201D24E
:103C5000508848801C4860308188408800908142AC
:103C60000BD019480099603081803C21688BFCF7AB
:103C70003BFA0099081A1749088517487D21C900A1
:103C80000088FCF731FAFF20C330814239D9687AC5
:103C9000002837D1688B11A2401C68836E722021E6
:103CA000002001F0E1FD3C21688BFCF71DFA06497C
:103CB000603100E032E0498800230A1A22211846C8
:103CC000009601F075FD0BE046020020000C00504C
:103CD000FE080020FE1100200A000020D4BC0000D5
:103CE0001FA22121002001F0BFFD3C21688BFCF7C1
:103CF000FBF900230A4624211846009601F058FDDE
:103D000000E06F7219483C214088484381B217484F
:103D1000123003F0C9FA002800D162E7E67160E7CB
:103D2000032129700776877610480221123003F0AC
:103D3000BBFA0028F3D0152052E7314641760646FB
:103D4000C1760320287009480A21123003F0ACFA2A
:103D50000028E4D02F707776F7760C2040E700003B
:103D6000B7D6BAF3C6F4B6AF00000000A602002032
:103D7000F8B5FFF767FBFB4C0126207EE17E884209
:103D80003AD0F94D2027002807D1002219211046EA
:103D9000FCF7CAFEA88A3843A882207E012807D1F2
:103DA000012219210020FCF7BFFEA88AB843A8828F
:103DB000207E022807D1022219210020FCF7B4FE40
:103DC000A88AB843A882207E032807D1032219219C
:103DD0000020FCF7A9FEA88AB843A882207E042808
:103DE00007D1042219210020FCF79EFEA88AB843BF
:103DF000A882207EE076A677DA4D2035687829798A
:103E0000884228D0002809D1002214211046FCF74E
:103E10008BFE002217211046FCF786FE68780128E9
:103E200009D1012214210020FCF77EFE0122172176
:103E30000020FCF779FE6878032809D103221421B9
:103E40000020FCF771FE032217210020FCF76CFE16
:103E500068782871EE71C349227A603108460027DC
:103E600080380B2A76D009DC130002F063FB0B3795
:103E70001F3138575B98A8C8DADC3700152A6AD09A
:103E800009DC0C3A130002F055FB09DBDEEAA82935
:103E9000292929FD2900162A7AD0172A1DD0652A3A
:103EA0005AD0662A1AD103202076CAE0AD48277678
:103EB000A98F7A3003F0F8F900280FD0A88EFF21DF
:103EC000EF31801F884201D20320C6E00220C4E007
:103ED0006674042020761720BFE02676F8BDA1483E
:103EE0000A217A3003F0E0F90028F7D0A88E0A28DA
:103EF00001D202212172E98D4900814201D80221BB
:103F0000217201460A39BE2901D804213EE0FF2171
:103F10002C31C9388842E1D205209EE0022020766B
:103F200006209AE08F4802217A3003F0BDF900287C
:103F3000D4D0AF83A773A88E65210A2800D221723E
:103F4000EA8D5200824200D8217202460A3ABE2A05
:103F50001CD9DCE76FE033E1824802217A3003F0BC
:103F6000A3F90028BAD0A88E0A2801D20221217212
:103F7000E98D4900814201D802212172298C012951
:103F800007D001460A39BE29C1D80D212172BEE7EA
:103F90005DE001460A39BE29B9D80B21F6E7314662
:103FA0000177817706466F4869700A217A3003F0FD
:103FB0007BF9002892D03777B77707204DE06079FA
:103FC000012801D108202072664809887A3003F060
:103FD0006BF9002882D00F203FE03146417706463A
:103FE000C177032068705F480A217A3003F05CF9DA
:103FF00000289DD07777F7776F7009202DE0314644
:1040000041770646C1770320687056480A217A3006
:1040100003F04AF900288BD06F707777F7770A2082
:104020001BE0A675DCE0A07B401CC0B2A073032897
:104030007ED30B2011E026750320207666200CE04D
:1040400026766F70F8BD02202076162005E02675D2
:1040500000206E73C04308810E202072F8BD4348D3
:10406000424A838A288F20329C46834201D3938A16
:10407000CB80844505D23D4B5B8A834201D3538A72
:10408000CB8000E08FE0394B5B8A834205D2374B0F
:104090001B8A834201D3138ACB80344B1B8A834211
:1040A00005D2324BDB89834201D3D389CB802F4B9E
:1040B000DB89834205D22D4B9B89834201D39389AF
:1040C000CB802A4B9B89834201D29089C8802548A6
:1040D00060300189C088009081420BD0214800994E
:1040E000603001813C21A88BFBF7FEFF0099081A84
:1040F0001F4948851F487D21C9000088FBF7F4FF50
:10410000FF20C33081423FD9A87A00283DD1A88B37
:1041100019A2401CA883AE722621002001F0A4FB46
:104120003C21A88BFBF7E0FF0E496031C98800E015
:1041300037E00A1A002323211846009601F038FBC5
:104140000EA22721002001F08FFB3C21A88BFBF75A
:10415000CBFF00230A4625211846009601F028FBD4
:1041600013E0000046020020000C0050FE08002072
:10417000FE1100200A000020D4BC0000B7D6BAF31C
:10418000C6F4B6AF00000000AF7216483C21C088EC
:10419000484381B213481A3003F086F8002800D152
:1041A0005CE72672F8BD03216970077787770D48B1
:1041B00002211A3003F078F80028F3D015204CE7DC
:1041C000314641770646C1770320687005480A21C9
:1041D0001A3003F069F80028E4D06F707777F7772A
:1041E0000C203AE7A6020020F8B5FFF779F9F74C62
:1041F0000126607E217F88423AD0F54D4027002875
:1042000007D1002218211046FCF78EFCA88A3843FB
:10421000A882607E012807D1012218210020FCF726
:1042200083FCA88AB843A882607E022807D10222B4
:1042300018210020FCF778FCA88AB843A882607E89
:10424000032807D1032218210020FCF76DFCA88A5F
:10425000B843A882607E042807D1042218210020D8
:10426000FCF762FCA88AB843A882607E2077E677D4
:10427000D64D2035A8786979884228D0002809D100
:10428000002216211046FCF74FFC00221521104693
:10429000FCF74AFCA878012809D101221621002048
:1042A000FCF742FC012215210020FCF73DFCA87818
:1042B000032809D1032216210020FCF735FC032234
:1042C00015210020FCF730FCA87868712E72BF49D8
:1042D000607A002760310B2876D009DC030002F0F9
:1042E00029F90B371F3138575B98A6C4D4D637004D
:1042F00015286AD009DC0C38030002F01BF909D537
:10430000D8E4A629292929FD290016287AD01728BA
:104310001DD065285AD066281AD103206076C4E0E3
:10432000AA486776A98F823002F0BEFF00280FD01E
:10433000E88EFF21EF31801F884201D20320C0E0C8
:104340000220BEE0A674042060761720B9E06676ED
:10435000F8BD9E480A21823002F0A6FF0028F7D05F
:10436000E88E0A2801D202216172298E4900814219
:1043700001D80221617201460A39BE2901D80421FF
:104380003EE0FF212C31C9388842E1D2052098E077
:1043900002206076062094E08C480221823002F0F0
:1043A00083FF0028D4D0EF83E773E88E65210A28C5
:1043B00000D261722A8E5200824200D86172024697
:1043C0000A3ABE2A1CD9DCE769E02DE17F480221C8
:1043D000823002F069FF0028BAD0E88E0A2801D2A4
:1043E00002216172298E4900814201D80221617245
:1043F000A98C012907D001460A39BE29C1D80D214F
:104400006172BEE757E001460A39BE29B9D80B21CF
:10441000F6E726706D48A670AE700A21823002F071
:1044200043FF002894D02770A770072049E0A079A7
:10443000012801D10820607264480988823002F0A6
:1044400033FF002884D00F203BE06670E670032025
:10445000A8705E480A21823002F026FF0028A1D011
:104460006770E770AF7009202BE06670E67003207C
:10447000A87056480A21823002F016FF002891D019
:10448000AF706770E7700A201BE0A675DAE0E07B8A
:10449000401CC0B2E07303287ED30B2011E0667588
:1044A0000320607666200CE06676AF70F8BD0220CF
:1044B0006076162005E066750020AE73C0438881E3
:1044C0000E206072F8BD4348424AC38B288F2032C9
:1044D0009C46834201D3D38B4B81844505D23D4B0F
:1044E0009B8B834201D3938B4B813A4B9B8B8342B3
:1044F00007D2384B5B8B00E089E0834201D3538BBA
:104500004B81344B5B8B834205D2324B1B8B8342F6
:1045100001D3138B4B812F4B1B8B834205D22D4B29
:10452000DB8A834201D3D38A4B812A4BDB8A8342C5
:1045300001D2D08A48812548603081894089009025
:1045400081420BD021480099603081813C21E88B69
:10455000FBF7CAFD0099081A1F4988851F487D216D
:10456000C9000088FBF7C0FDFF20C33081423FD95E
:10457000E87A00283DD1E88B19A2401CE883EE724E
:104580002A21002001F070F93C21E88BFBF7ACFDFB
:104590000E496031498900E037E00A1A00232821DA
:1045A0001846009601F004F90EA22B21002001F01C
:1045B0005BF93C21E88BFBF797FD00230A46292194
:1045C0001846009601F0F4F813E0000046020020BF
:1045D000000C0050FE080020FE1100200A00002000
:1045E000D4BC0000B7D6BAF3C6F4B6AF00000000E2
:1045F000EF7215483C214089484381B2124822306D
:1046000002F052FE002800D15CE76672F8BD03207C
:10461000A8700D482770A7700221223002F044FED6
:104620000028F3D015204CE76670E6700320A870D0
:1046300005480A21223002F037FE0028E6D0AF708C
:104640006770E7700C203CE7A602002010B50F4809
:104650000F4903780F4802788B54521CD3B2037071
:104660000C7800225A2C08D1042B08D34B78A52BA8
:1046700000D002708978092901D0027010BD01783C
:104680000A29FBD30A21017010BD0000150000208B
:10469000C80E0020440400208068C007C00F704787
:1046A00080684007C00F7047C0680005800F01D0C8
:1046B0000020704701207047026807239B059A433A
:1046C0000A430260704710B543690424214007245F
:1046D0008C40A3438A401343436110BDFEB50024C0
:1046E0003048009401942E49029401608460C460B3
:1046F000042646610905046141600476447601257B
:1047000085760521C161014620310C7044628462C6
:104710000D7304630622846342630C77C464FCF760
:104720002BFF002801D0FCF747FD1F4800900194A3
:10473000694602941B48FCF705FE002801D0FCF7EF
:104740003BFD1A480090694601961648FCF7FAFDB1
:10475000002801D0FCF730FD15480090082001909A
:1047600069461048FCF7EEFD002801D0FCF724FD57
:10477000104800900C20019069460A48FCF7E2FDC1
:10478000002801D0FCF718FD102001906946009523
:104790000448FCF7D7FD002801D0FCF70DFDFEBD55
:1047A00000240140940500200200000410000010C5
:1047B000200000144000001808B50848816B012251
:1047C00011438163806B1040002200901146092044
:1047D000FDF702FC0920FDF7F3FB08BD00100240C5
:1047E000F0B587B014216846FBF7B3FC4448426B30
:1047F00004210A434263426B0A400592426B202126
:104800000A434263426B0A400592416B01252943EA
:104810004163416B29400591426B02210A43426387
:10482000426B0A400592426B08210A434263406B87
:104830008F260840B6000590002231463148FDF72A
:104840001FFBEF030520002239460007FDF718FB88
:10485000002229032C48FDF713FB002269032A4894
:10486000FDF70EFB002208212748FDF709FB27482A
:104870000024009002946946019503942248FDF7B4
:1048800049FA002210212048FDF7FAFA1020694663
:1048900031C169461C480394FDF73CFA002270219F
:1048A0001B48FDF7EDFA70200090029469460195CF
:1048B00003941748FDF72EFA0294694611480096B2
:1048C00001950394FDF726FA21263602012231468E
:1048D0000C48FDF7D5FA1120019002946946009624
:1048E00003940848FDF716FA05200294694600076C
:1048F000009701950394FDF70DFA07B0F0BD000095
:104900000010024000040050000800500830000071
:10491000000C005010B509480749016004214160AE
:104920007D210901C1608160FDF7B6FA002801D040
:10493000FCF742FC10BD000000300040D412002003
:1049400010B588B000240094019417480294039491
:1049500004940594134906940160144984604160ED
:10496000046109218461C160FDF76EFF002801D058
:10497000FCF722FC01200003009069460A48FDF77D
:10498000D1FF002801D0FCF717FC049404A90648C5
:104990000694FDF723FF002801D0FCF70DFC08B0BA
:1049A00010BD00000004004054060020FF18000065
:1049B00010B5184816490160E12149024160002103
:1049C0008160C16001618161C16101620C2241624B
:1049D00042618162FEF79CFA002801D0FCF7ECFBF3
:1049E00000210C48FEF73BF9002801D0FCF7E4FB5E
:1049F00000210848FEF70FF9002801D0FCF7DCFB86
:104A00000448FEF7E8F8002801D0FCF7D5FB10BDFC
:104A100000380140A006002010B518481649016072
:104A2000E1214902416000218160C1600161816131
:104A3000C16101620C22416242618162FEF768FA43
:104A4000002801D0FCF7B8FB00210C48FEF707F95D
:104A5000002801D0FCF7B0FB00210848FEF7DBF886
:104A6000002801D0FCF7A8FB0448FEF7B4F80028A2
:104A700001D0FCF7A1FB10BD00440040300700202E
:104A800010B50D480B490160E12149024160002148
:104A90008160C16001618161C16101620C2241627A
:104AA00042618162FEF734FA002801D0FCF784FBF2
:104AB00010BD000000480040C007002010B50D48A0
:104AC0000B490160E1214902416000218160C16020
:104AD00001618161C16101620C22416242618162B6
:104AE000FEF716FA002801D0FCF766FB10BD0000A7
:104AF000004C004050080020FEE70000F8B5B74B1E
:104B0000002601241F7800280DD0022870D0032829
:104B10006FD005286BD1B24D09296BD00B2966D116
:104B2000012A68D033E1052918D006291DD00729AC
:104B300022D0082927D009292CD00A2931D031299F
:104B400036D032293BD0332940D0342945D03529BD
:104B500052D036294BD1012A56D045E0012A43D103
:104B6000012F44D11E709F484CE0012A3CD1012FF7
:104B70003DD11E709C4845E0012A35D1012F36D128
:104B80001E709A483EE0012A2ED1012F2FD11E70AF
:104B9000974837E0012A27D1012F28D11E70954868
:104BA00030E0012A20D1012F21D11E70924829E046
:104BB000012A19D1012F1AD11E70904822E0012A32
:104BC00012D1012F13D11E708D481BE0012A0BD189
:104BD000012F0CD11E708B4814E0012A04D1012F43
:104BE00005D11E7088480DE0002A00D11C70F8BD68
:104BF0000FE06CE0C9E0E0E0012AF5D1012FF6D129
:104C000082481E700470F2E7012FF0D11E708048B8
:104C1000F8E7232909D0242924D02529E7D17D4D7F
:104C2000012A3CD0002A48D048E07B4D012A02D01E
:104C3000002A0ED00EE0012F0CD11E70288800280B
:104C400005D000202880012003F034FC02E0012080
:104C5000F8E71C702888002802D00022202132E0CA
:104C60000122FBE76D4D012A02D0002A0ED00EE092
:104C7000012F0CD11E702888002805D00020288024
:104C8000012003F017FC02E00120F8E71C702888DF
:104C9000002802D00022212115E00122FBE7012F8C
:104CA0000CD11E702888002805D000202880012003
:104CB00003F000FC02E00120F8E71C7028880028BF
:104CC00003D000222221022074E00122FAE70C29FD
:104CD00009D00E2924D0102989D1514D012A3CD068
:104CE000002A48D048E04F4D012A02D0002A0ED0B9
:104CF0000EE0012F0CD11E702888002805D000205E
:104D00002880012003F0D6FB02E00120F8E71C70A8
:104D10002888012802D000220B2132E00122FBE783
:104D2000414D012A02D0002A0ED00EE0012F0CD1F5
:104D30001E702888002805D000202880012003F05C
:104D4000B9FB02E00120F8E71C702888012802D096
:104D500000220D2115E00122FBE7012F0CD11E706E
:104D60002888002805D000202880012003F0A2FB1D
:104D700002E00120F8E71C702888012803D00022F7
:104D80000F21032016E00122FAE7012A02D0002AAF
:104D90001BD004E0012F02D11E702E8011E0288864
:104DA000012814D0012208210520FBF7BDFE0022B6
:104DB0000A210520FBF7B8FE19E7012FEFD11E707D
:104DC0002C80012003F076FBE9E71C70E7E7002266
:104DD00008210520FBF7A8FE0122E9E7680500206D
:104DE000B402002026020020270200202A02002010
:104DF0002B0200202E0200202F0200203202002071
:104E00003302002036020020370200203A02002040
:104E10003B0200208A020020860200208802002037
:104E20007E0200207A0200207C02002070470000F1
:104E3000FEB50C4600211346002829D0022839D09F
:104E40000125844E032860D0052832D16846818030
:104E500001AA81A11846FBF7AFF9022C79D0032CE7
:104E600078D0042C77D0052C76D0062C75D0072C62
:104E70001FD17A4C684680882188884203D02080E0
:104E8000012003F017FB0023009522880721B1E0E1
:104E9000684601806A4670A11846FBF78DF92F2CF1
:104EA00007D16F480088012803D168466D49008802
:104EB0000880FEBD684601806A4667A11846FBF778
:104EC0007BF9694E694F0225AC420ED1E80711D03B
:104ED00068084000C01940386946C28F09888A4274
:104EE00000D0C187012003F0E5FA6D1CEDB21F2D43
:104EF000EAD9FEBD68084000811940396846CA8F6A
:104F000000888242F1D0C887ECE76846818001AA18
:104F100051A11846FBF750F9082C1FD0092C23D0BB
:104F20000A2C28D0022C2AD0032C37D0042CE0D114
:104F3000684680883188884203D03080012003F0A1
:104F4000B9FA0095002332880421032000F030FCD8
:104F5000FEBD32E040E04FE05DE06BE068468188F6
:104F6000434804E00180F3E76846818841480288AD
:104F70009142F7D1ECE7684681883F48F7E73F4C1C
:104F8000684680882188884203D02080012003F071
:104F900091FA0023009522880221D6E7384C684612
:104FA00080882188884203D02080012003F082FA83
:104FB0000023009522880321C7E76846808831884E
:104FC000304C884203D02080012003F073FA002384
:104FD0000095228802210DE02B4C684680882188AC
:104FE000884203D02080012003F064FA009500235A
:104FF000228803210520A9E7244C6846808821885F
:10500000884203D02080012003F054FA0023009549
:1050100022880421EEE71E4C684680882188884259
:1050200003D02080012003F045FA00230095228858
:105030000521DFE7174C684680882188884203D025
:105040002080012003F036FA0023009522880621F3
:10505000D0E7000096020020256C64008C0200203E
:105060008E0200209E020020FE0800201E09002063
:10507000980200209A0200209C0200209202002048
:1050800094020020A0020020A2020020A40200201E
:10509000A6020020B6020020F8B5A74C0025A07893
:1050A000A64E0A287BD008DC030001F043FA0A363A
:1050B0003F3E556A838BA2AABF3EA14F0F286FD0F7
:1050C0001BDC0B286DD00C286CD00D286BD00E2863
:1050D0002BD19B4A9BA12D3AA44801F017FAFA2143
:1050E000A24802F0A3F900281FD0A1A002F050F9B5
:1050F000002876D025830F2016E1102872D03028A2
:105100001CD0312811D19E4802F0AEF900280CD0F5
:105110000320A0702583012219E0002208213046D7
:10512000FCF7AEFE0120A0702583F8BD7D20C000F5
:1051300002F09AF90028F8D03020EAE7914802F00E
:1051400093F90028F1D03120A07025830022082196
:105150003046FCF795FEF8BDFA218BA002F066F907
:105160000028F8D08AA002F013F9002802D0258385
:105170000420D9E0208B411C21833228EBD9A57073
:10518000F8BDFA2183A002F051F90028F8D080A0E0
:1051900002F0FEF8002807D025830520C4E05EE079
:1051A000B0E064E06BE09FE0208B411C2183052888
:1051B000E5D8F8BD96217AA002F038F90028F8D099
:1051C0000620B1E0FF212D3179A002F02FF900284F
:1051D000EFD07AA002F0DCF8002804D02583072065
:1051E000A2E07BE0A2E0208B411C21833228C6D2C2
:1051F000F8BD962172A002F019F90028F8D0082015
:1052000092E0FF21F53176A002F010F90028EFD0EE
:1052100076A002F0BDF8002802D02583092083E0A3
:10522000208B411C21830F28A9D2F8BD962172A0A2
:1052300002F0FCF80028F8D055A002F0A9F80028E8
:10524000B2D070A002F0A4F8002805D0208B411C39
:1052500021831E2893D8F8BD25830A2064E0962177
:105260006BA002F0E3F80028F5D00B205CE096215B
:105270006BA002F0DBF80028EDD00C2054E01921DF
:105280006AA002F0D3F80028E5D06B4EB078303831
:10529000092823D82A48192119380090FAF759FF0C
:1052A00019213846FAF755FF254814212D38FAF709
:1052B00050FF23480F22B11C2D38FAF731FF204A46
:1052C0005EA12D3A009801F021F91D4A5DA12D3A09
:1052D000384601F01BF925830D2025E0208B411C69
:1052E00021830328B6D8F8BDFA2158A002F09EF811
:1052F0000028F8D05EA002F04BF80028A6D0258345
:105300000E2011E03A465EA1184801F0FFF8FA219C
:10531000164802F08BF80028E5D05FA002F038F8BC
:105320000028DBD025831020A070F8BD022020715A
:105330002020A070FB20F8BD4C0400200008005085
:10534000A312002041542B514D54434F4E4E3D303B
:105350002C222573222C22646576696365222C2217
:10536000313233343536220D0A0000005E11002040
:105370002B514D54434F4E4E3A20302C302C3000A0
:10538000FC0800004C04000041540D0A000000001D
:105390004F4B00004154453026570D0A00000000D5
:1053A00041542B514D54444953433D300D0A0000A4
:1053B00041542B43494D490D0A000000343630005A
:1053C00041542B5149435347503D312C312C2243FA
:1053D0004D4E4554222C22222C22222C300D0A0024
:1053E00041542B43474154543F0D0A002B4347413E
:1053F00054543A203100000041542B4353510D0ABC
:10540000000000002B4353513A2039392C39390020
:1054100041542B51494143543D310D0A00000000D5
:1054200041542B51494143543F0D0A0041542B47ED
:10543000534E0D0A00000000321000206170702FE2
:10544000257300006465762F2573000041542B51AD
:105450004D544F50454E3D302C2262616E676D7544
:1054600079756E2E636F6D222C313838330D0A003A
:105470002B514D544F50454E3A20302C30000000F7
:1054800041542B514D545355423D302C312C222543
:1054900073222C300D0A00002B514D545355423AC3
:1054A00020302C312C302C300000000070470000E0
:1054B000FEB5044647788378C679C01C41780078E9
:1054C0000902A27901436579100228434DBA41BA15
:1054D0006A4611802246083214480D2F10DD0F2F26
:1054E0000ED0B12F0DD0F72F0AD18179037AC2796E
:1054F0006C460EC443790279C1788078FFF796FC38
:10550000FEBD012B06D0103E330001F013F8020659
:105510000B02F5E706484580FEBD627A2846FFF794
:10552000EDFAFEBD2846FFF783FCFEBD68130020A0
:1055300068050020F3B50E4D0127A88A7F0281B0CF
:105540003843A8820E46012001F0FAFE002405E04F
:105550000198005D02F058FE641CE4B2B442F7D337
:10556000012001F0EDFEA88AB843A882FEBD00002C
:105570000004005010B50346002003E01C780C54D2
:10558000401C5B1C9042F9D310BD8288002A16D0C3
:10559000028852001218D2880A800288520012181B
:1055A00012894A800188891CC906C90E0180818838
:1055B000491E81808188491E81800120704700201A
:1055C0007047000070B5094800F0B2F8074C084A6F
:1055D000084D00204100635A401C5352C0B26B5228
:1055E0005028F7D3012002F015FE70BD40090020BD
:1055F000700C0020000E0020F8B54448FAF7D4FDE6
:10560000C10F081842104149414800F068F940486C
:10561000404C01784278090289188BB226462380D3
:105620004C3E73868178C2780902891889B26180FC
:10563000F185027940791202101882B2A280364CAC
:105640003286A34202D1354800F034FF0025012004
:10565000F18D00032F18B9420FD1708EA0420CD1EA
:105660002F4B68001A5A318E8A4206D0294A921D61
:1056700011521952002002F01DFFF08DB8420AD1DC
:10568000718E2848814206D127486900425A338EDC
:105690009A4200D043526D1CEDB2642DD7D3318EA7
:1056A0001A4C0020728EF38D0D46C8340126760305
:1056B0008619B34207D1184EB24204D14600A75B07
:1056C000AF4200D0A553401CC0B21E28EED300202C
:1056D0000325144C154F2D034619B34208D1A2429D
:1056E00006D14600B446BE5B8E4201D06646B95331
:1056F000401CC0B21E28EFD30020044902460A54C1
:10570000401CC0B26428FAD3F8BD0000FA10002093
:10571000E80E0020980400205AA50000A8130020DD
:10572000700C00205BB500007C0300203A120020C2
:1057300010B5074BFF249134014622461846FFF767
:1057400019FFA04201D0002010BD012010BD0000B3
:1057500000F80108704708B5034605E0694608707F
:105760006846FBF7ADFC5B1C18780028F6D108BD35
:1057700010B50D4C01202070032060700020A07037
:105780000A48062100882071000AE070022060713A
:10579000204601F0B3FDE071000AA0710821204607
:1057A000FFF7C8FE10BD0000E008002078020020CE
:1057B000F8B50D460746EE216846069E1446017070
:1057C000FBF77EFCB12168460170FBF779FC0721ED
:1057D00068460170FBF774FC390A68460170FBF7F4
:1057E0006FFC68460770FBF76BFC290A684601707E
:1057F000FBF766FC68460570FBF762FC002B01D0E6
:10580000012100E0002168460170FBF759FC3107D7
:10581000090F684680310170FBF752FC210E684683
:105820000170FBF74DFC210C68460170FBF748FC4A
:10583000210A68460170FBF743FC68460470FBF7D9
:105840003FFCFF2368460370FBF73AFCFC216846E7
:105850000170FBF735FC68460370FBF731FC6846C6
:105860000370FBF72DFCF8BD38B50B460446EE215E
:10587000684615460170FBF723FCB12168460170AC
:10588000FBF71EFC102168460170FBF719FC210A8A
:1058900068460170FBF714FC68460470FBF710FCC7
:1058A000190A68460170FBF70BFC68460370FBF7AA
:1058B00007FC2846FFF74FFFFF2368460370FBF7FE
:1058C000FFFBFC2168460170FBF7FAFB684603709A
:1058D000FBF7F6FB68460370FBF7F2FB38BDF7B544
:1058E00082B017460E4600241AE06100705C8919E8
:1058F00049780091FAF70EFC3038C5B2092D01D96C
:10590000ED1FEDB20098FAF705FC3038C0B2092857
:1059100001D9C01FC0B22901081802990855641C9A
:10592000BC42E2DB05B0F0BD10B5FCF7EFFA10BDEC
:1059300030B599B034216846FAF70BFC0024149472
:10594000159416941C210DA81794FAF702FC012057
:105950004002FCF745FB0120009000040190032069
:10596000089010200A90400302250B900795000331
:105970000C9009946846FCF70FFD002801D072B620
:10598000FEE707201490169402211595179414A889
:10599000FCF7FCFB002801D072B6FEE70648129423
:1059A0000D900E940F940DA8FCF740FB002801D039
:1059B00072B6FEE719B030BD034000000120024975
:1059C000C00688607047000000ED00E010B5024896
:1059D000FDF716F810BD000054060020F0B502686F
:1059E0001A4B1B4C984201D0A04203D17025AA4308
:1059F0004D682A43174D184E184F98420AD0A042BE
:105A000008D0174CA04205D0A84203D0B04201D024
:105A1000B84205D11446032212029443CA682243B5
:105A20008024A2434C69224302608A68C2620A68E9
:105A30008262984205D0A84203D0B04201D0B84259
:105A400001D10969016301214161F0BD002C0140D0
:105A50000004004000400140004401400048014073
:105A60000020004030B58468FF252D021B0213433F
:105A7000AC430B432343836030BD00008268034B7B
:105A80001A400A4307210A43826070478FFFCFFF05
:105A900030B5036A046A6408640004628469F0250E
:105AA000AC43120122430A24A3430B4382610362E5
:105AB00030BD30B5036A1024A34303628469036ACE
:105AC0000F252D031203AC432243A024A343090155
:105AD00019438261016230BDF0B513A106C985B0DA
